:020000040000FA
:060000000A128A110E280D
:10000800FE00030EF3000408F4000A08F5000A12C3
:100018008A11112A0A128A111128F601F70183128E
:100028000313AB01AC01AD01AE01AF01B001B101E9
:10003800B20183010A128A11A329831203139F189C
:10004800262827282D290A29831603178C182D28D6
:100058002E282D29831203131F0CA000200C0F3902
:10006800013A031D382839282D291E08A000200828
:10007800AF002D29831603178C18432844284A28D3
:10008800831203131F08C33908389F00A030831256
:1000980003132F02031C512852285628A030A00011
:1000A8002008AF000B302F0203185B285C282D298D
:1000B8000A30A0002008AF002D29831603178C18DA
:1000C800662867282D29831203131F0CA000200C13
:1000D8000F39023A031D712872282D291E08A00025
:1000E8002008AE002D29831603178C187C287D283C
:1000F8008328831203131F08C3390C389F00A030CC
:10010800831203132E02031C8A288B288F28A03001
:10011800A0002008AE000B302E0203189428952862
:100128002D290A30A0002008AE002D2983160317B8
:100138008C189F28A0282D29831203131F0CA000B8
:10014800200C0F39033A031DAA28AB282D291E08B5
:10015800A0002008AD002D29831603178C18B52898
:10016800B628BA28C330831203139F05A030831220
:1001780003132D02031CC128C228C628A030A000E2
:100188002008AD000B302D020318CB28CC282D29D0
:100198000A30A0002008AD002D29831603178C18FB
:1001A800D628D7282D29831203131F0CA000200C52
:1001B8000F39003A031DE128E2282D291E08A00066
:1001C8002008B0002D29831603178C18EC28ED2879
:1001D800F328831203131F08C33904389F00A03083
:1001E800831203133002031CFA28FB28FF28A030CF
:1001F800A0002008B0000B3030020318042905299C
:100208002D290A30A0002008B0002D2932081F39F6
:10021800A000A1012108003A031913292D2920085B
:10022800003A03192828013A03193E28023A03190B
:100238006128073A03197728023A03199A28013ADC
:100248000319B0280E3A0319D128033A0319E728ED
:100258002D2908000F3083160317880089010F30F5
:1002680083160313850007308600823087008801D3
:100278008901831203138501860187018801890199
:10028800AB017030831603138F040F14831203130A
:100298001008CF39203890003C308F00AF308E00E6
:1002A80010100B118B160C10831603130C140B1063
:1002B8008B110B178C168B171614961416158312A0
:1002C80003131F083F3980389F00C3309F059F10D4
:1002D8001F14831603139F139F121F12F9309200E5
:1002E8000F30831203139D040F309B008C100330D2
:1002F800920412158C1C812982297E29803083164C
:10030800031387000C3099001811981683120313F1
:1003180018168316031318128312031398178316DB
:1003280003130F14811281110111811401140B118F
:100338008330831203138100B212321308000A12A9
:100348008A112E210A128A11F8298613311CAD2927
:10035800AE29DB29C7291014091483120313AC0131
:10036800DA29FF309B0062300A128A1101240A122E
:100378008A11B1290F309B0063300A128A110124B7
:100388000A128A11B1292C08A800A9012908003AE3
:100398000319CF29DA292808313A0319AF29033A72
:1003A8000319B529013A0319BE29DA293110101C9D
:1003B800DE29DF29F8290A128A1181230A128A11F3
:1003C800F8298617B21FE929EA29F2290A128A119F
:1003D800AE230A128A1183120313B2130A128A1166
:1003E80021200A128A11F82983120313320EA80059
:1003F800A80C280C0139A900AA012A08003A0319F7
:10040800062AF8292908003A0319A929013A0319E3
:10041800E529F8290A128A110E280B1D142A152A13
:100428002D2A8312031332081F39F200F20A320808
:100438007206E0397206B2000B110A128A113123D2
:100448000A128A1183120313321F2B2A2C2A2D2AEF
:100458009F14831203130C1C322A332A3D2AB21725
:100468000130F2007208AB070C103C308F00AF303F
:100478008E000B1C402A412A572A061C442A452A6A
:10048800572A1018482A492A562A0310321F0314DB
:1004980003184F2A532A831203133217562A83123A
:1004A800031332130B100B1C5A2A5B2A6B2A861C67
:1004B8005E2A5F2A6B2A321F622A632A652A101471
:1004C8000914321F682A692A6A2AB2170B100B10FE
:1004D8008C1E6F2A702A762A1A08F2007208AC005D
:1004E80031148C1275088A0074088400730E830016
:1004F800FE0E7E0E090083120313A300A401B82A7E
:10050800230824070A128A11F2230A128A11831275
:100518000313A1002108B000CE2A230824070A12D9
:100528008A11F2230A128A1183120313A1002108E7
:10053800AF00CE2A230824070A128A11F2230A12CE
:100548008A1183120313A1002108AE00CE2A2308C2
:1005580024070A128A11F2230A128A11831203133A
:10056800A1002108AD00CE2A2408A100A20122087A
:10057800003A0319C02ACE2A2108003A0319842A0E
:10058800013A0319912A033A03199E2A013A0319D9
:10059800AB2ACE2A0130A1002108A4070430240286
:1005A800031CD72AD82AB82A080083120313A400E8
:1005B800A5010E2B24082507A2002208A000300858
:1005C8000A128A11D5230A128A11242B2408250716
:1005D800A2002208A0002F080A128A11D5230A12A5
:1005E8008A11242B24082507A2002208A0002E081F
:1005F8000A128A11D5230A128A11242B24082507E6
:10060800A2002208A0002D080A128A11D5230A1276
:100618008A11242B2508A200A3012308003A0319F4
:10062800162B242B2208003A0319DE2A013A031953
:10063800EA2A033A0319F62A013A0319022B242B52
:10064800013083120313A2002208A50704302502F3
:10065800031C2F2B302B0E2B080083120313320898
:100668001F390F3A031D392B3A2B5D2BE030B205A9
:100678005D2B300881000814802B30098100081098
:10068800802B2F0881008814802B2F098100881067
:10069800802B2E0881000815802B2E098100081157
:1006A800802B2D0881008815802B2D098100881149
:1006B800802B32081F39F000F1017108003A031944
:1006C800662B802B7008003A03193D2B013A031959
:1006D800412B023A0319452B073A0319492B023AD1
:1006E80003194D2B013A0319512B0E3A0319552BB7
:1006F800033A0319592B802B08009E2B10108F01E9
:100708008E01AB01890161300A128A1101240A1293
:100718008A11AD2B2B08A50001300310A50DFF3E53
:10072800031D912B0310250D0A128A117F220A122C
:100738008A11AD2B831203132B08A500A6012608E6
:10074800003A0319A82B8E2B25081F3A0319822B70
:100758008E2B0800C52B10108F018E01AB0189016B
:10076800D42B2B08A60001300310A60DFF3E031D55
:10077800B82B0310260D0A128A11D9220A128A11DF
:10078800D42B831203132B08A600A7012708003ACD
:100798000319CF2BB52B26081F3A0319AF2BB52BFE
:1007A800080083120313A1002008831203178D0089
:1007B800831203132108831203178C00831603176F
:1007C8000C158B1355308D00AA308D008C148B17A7
:1007D8008C18EF2BF02BEC2B0C1108008312031351
:1007E800A0002008831203178D00831603178C13AB
:1007F8000C14831203170C08080083120313A000BB
:100808002008990083160313981C0B2C0C2C062C1B
:020818000800D6
:04400E00F420FF3F5C
:00000001FF
