:020000040000FA
:060000000A128A110C280F
:10000800FE00030EF6000A08F7000A128A114329B7
:100018000A128A110F28F001F101F201F301F4012B
:1000280083010A128A115C29831203139F181D2861
:100038001E28B82895281E08F8007808F200B82865
:100048001F08C33908389F00BF307202031C2D28CF
:100058002E283228BE30F8007808F2000A307202E2
:10006800031837283828B8280A30F8007808F2002A
:10007800B8281E08F8007808F100B8281F08C33906
:100088000C389F00BF307102031C4B284C285028A5
:10009800BE30F8007808F1000A30710203185528BC
:1000A8005628B8280A30F8007808F100B8281E0841
:1000B800F8007808F000B828C3309F05BF307002F8
:1000C800031C672868286C28BE30F8007808F00000
:1000D8000A307002031871287228B8280A30F8000C
:1000E8007808F000B8281E08F8007808F300B82847
:1000F8001F08C33904389F00BF307302031C8528CA
:1001080086288A28BE30F8007808F3000A3073027F
:1001180003188F289028B8280A30F8007808F300C8
:10012800B82874081F39F800F9017908003A03194A
:100138009E28B8287808003A03191F28013A03199D
:100148002428023A03193D28073A03194228023A9B
:1001580003195B28013A031960280E3A0319772816
:10016800033A03197C28B828F41EBB28BC280A299E
:1001780074081F390F3A031DC228C328C528E03068
:10018800F405F412E7287309810008100A29720996
:10019800810088100A297109810008110A2970094B
:1001A800810088110A297308810008140A29720835
:1001B800810088140A297108810008150A29700825
:1001C800810088150A2974081F39F800F90179088F
:1001D800003A0319F0280A297808003A0319D728A1
:1001E800013A0319C728023A0319DB28073A031909
:1001F800CB28023A0319DF28013A0319CF280E3A0F
:100208000319E328033A0319D3280A2908000F30F1
:1002180083160317880089010F308316031385009E
:1002280086018701880189018312031385018601EC
:100238008701880189017030831603138F040F1416
:100248000B118B168B17831203131F083F39803845
:100258009F00C3309F059F101F14831603139F131D
:100268009F121F120F1481128111011181140114A0
:100278000B118330831203138100F41208000B1D45
:1002880046294729552974081F39F500F50A7408C5
:100298007506E0397506F400F4160B118312031382
:1002A8009F1477088A00760E8300FE0E7E0E0900E2
:1002B8000A128A110B210A128A110A128A111820AD
:0C02C8000A128A1161290A128A110C28FE
:04400E00F420FF3F5C
:00000001FF
