:020000040000FA
:060000000A128A110E280D
:10000800FE00030EF3000408F4000A08F5000A12C3
:100018008A11B22A0A128A111128F601F7018312ED
:100028000313AF01B001B101B20183010A128A11B1
:100038002A29831203139F182228232829290629ED
:10004800831603178C1829282A28292983120313B1
:100058001F0CA000200C0F39013A031D3428352845
:1000680029291E08A0002008AD0029298316031796
:100078008C183F2840284628831203131F08C339C9
:1000880008389F00A030831203132D02031C4D284B
:100098004E285228A030A0002008AD000B302D02B9
:1000A80003185728582829290A30A0002008AD002D
:1000B8002929831603178C18622863282929831293
:1000C80003131F0CA000200C0F39023A031D6D28E2
:1000D8006E2829291E08A0002008AC0029298316AB
:1000E80003178C18782879287F28831203131F0890
:1000F800C3390C389F00A030831203132C02031C51
:10010800862887288B28A030A0002008AC000B3058
:100118002C0203189028912829290A30A0002008C9
:10012800AC002929831603178C189B289C28292999
:10013800831203131F0CA000200C0F39033A031D70
:10014800A628A72829291E08A0002008AB002929CD
:10015800831603178C18B128B228B628C330831227
:1001680003139F05A030831203132B02031CBD2821
:10017800BE28C228A030A0002008AB000B302B02FC
:100188000318C728C82829290A30A0002008AB006E
:100198002929831603178C18D228D32829298312D2
:1001A80003131F0CA000200C0F39003A031DDD2893
:1001B800DE2829291E08A0002008AE002929831658
:1001C80003178C18E828E928EF28831203131F085F
:1001D800C33904389F00A030831203132E02031C76
:1001E800F628F728FB28A030A0002008AE000B3026
:1001F8002E0203180029012929290A30A000200805
:10020800AE00292932081F39A000A1012108003AAF
:1002180003190F2929292008003A03192428013A2B
:1002280003193A28023A03195D28073A0319732873
:10023800023A03199628013A0319AC280E3A031911
:10024800CD28033A0319E328292908000A128A113C
:100258002C220A128A11132A8613311C34293529B3
:10026800F62963291014091483120313B001852990
:10027800FF309B0062300A128A11B2240A128A11D6
:1002880038290F309B0063300A128A11B2240A12EF
:100298008A11382931156430A8002808B00085294A
:1002A800B1155F30A8002808B000852931165529F6
:1002B800B11655293111B1113112B1128529300801
:1002C800A800A9012908003A03196B2985292808DB
:1002D800013A03193629033A03193C29013A03194B
:1002E8004529073A03194E29013A03195429033AB3
:1002F80003195A29013A03195C290F3A03195E298F
:1003080085293110311D89298A29A2290B3030020B
:1003180003188F29902994290A30A8002808B000CA
:10032800A0303002031C99299A299E29A030A800E0
:100338002808B0003008A8002808AE00B11DA5297B
:10034800A629BE290B3030020318AB29AC29B029E5
:100358000A30A8002808B000A0303002031CB529D4
:10036800B629BA29A030A8002808B0003008A8008B
:100378002808AD00311EC129C229DA290B30300204
:100388000318C729C829CC290A30A8002808B000B2
:10039800A0303002031CD129D229D629A030A800C8
:1003A8002808B0003008A8002808AC00B11EDD29D4
:1003B800DE29F6290B3030020318E329E429E8295D
:1003C8000A30A8002808B000A0303002031CED292C
:1003D800EE29F229A030A8002808B0003008A800AB
:1003E8002808AB00101CF929FA29132A0A128A11C5
:1003F80022240A128A11132A8617B21F042A052AF0
:100408000D2A0A128A115F240A128A118312031311
:10041800B2130A128A111D200A128A11132A831292
:100428000313320EA800A80C280C0139A900AA0150
:100438002A08003A0319212A132A2908003A03191D
:100448003029013A0319002A132A0A128A110E28A0
:100458000F3083160317880089010F3083160313A2
:100468008500073086008230870088018901831261
:10047800031385018601870188018901AF013111C4
:100488006430A0002008AE005F30A0002008AD0056
:100498005F30A0002008AC005F30A0002008AB004F
:1004A8007030831603138F040F148312031310087C
:1004B800CF39203890003C308F00AF308E001010BC
:1004C8000B118B160C10831603130C140B108B11C5
:1004D8000B178C168B171614961416158312031304
:1004E8001F083F3980389F00C3309F059F101F1495
:1004F800831603139F139F121F12F93092000F30B7
:10050800831203139D040F309B008C100330920458
:1005180012158C1C902A912A8D2A80308316031379
:1005280087000C30990018119816831203131816B7
:1005380083160313181283120313981783160313D1
:100548000F14811281110111811401140B118330D0
:10055800831203138100B212321308000B1DB52A4F
:10056800B62ACE2A8312031332081F39F200F20A80
:1005780032087206E0397206B2000B110A128A11AB
:10058800D2230A128A1183120313321FCC2ACD2ACE
:10059800CE2A9F14831203130C1CD32AD42ADE2AD2
:1005A800B2170130F2007208AF070C103C308F0010
:1005B800AF308E000B1CE12AE22AF82A061CE52A35
:1005C800E62AF82A1018E92AEA2AF72A0310321F1D
:1005D80003140318F02AF42A831203133217F72A94
:1005E8008312031332130B100B1CFB2AFC2A0C2B4F
:1005F800861CFF2A002B0C2B321F032B042B062BE7
:1006080010140914321F092B0A2B0B2BB2170B10CD
:100618000B108C1E102B112B172B1A08F2007208C6
:10062800B00031148C1275088A0074088400730EA7
:100638008300FE0E7E0E090083120313A300A4019B
:10064800592B230824070A128A11A3240A128A1193
:1006580083120313A1002108AE006F2B230824077F
:100668000A128A11A3240A128A1183120313A10001
:100678002108AD006F2B230824070A128A11A3242E
:100688000A128A1183120313A1002108AC006F2BF0
:10069800230824070A128A11A3240A128A11831232
:1006A8000313A1002108AB006F2B2408A100A201AD
:1006B8002208003A0319612B6F2B2108003A03190D
:1006C800252B013A0319322B033A03193F2B013A20
:1006D80003194C2B6F2B0130A1002108A40704300B
:1006E8002402031C782B792B592B0800831203133F
:1006F800A400A501AF2B24082507A2002208A0000A
:100708002E080A128A1186240A128A11C52B240877
:100718002507A2002208A0002D080A128A118624A3
:100728000A128A11C52B24082507A2002208A00056
:100738002C080A128A1186240A128A11C52B240849
:100748002507A2002208A0002B080A128A11862475
:100758000A128A11C52B2508A200A3012308003A12
:100768000319B72BC52B2208003A03197F2B013A2E
:1007780003198B2B033A0319972B013A0319A32B5F
:10078800C52B013083120313A2002208A5070430E9
:100798002502031CD02BD12BAF2B08008312031387
:1007A80032081F390F3A031DDA2BDB2BFE2BE03002
:1007B800B205FE2B2E0881000814212C2E09810079
:1007C8000810212C2D0881008814212C2D09810066
:1007D8008810212C2C0881000815212C2C09810057
:1007E8000811212C2B0881008815212C2B09810048
:1007F8008811212C32081F39F000F1017108003AE4
:100808000319072C212C7008003A0319DE2B013A32
:100818000319E22B023A0319E62B073A0319EA2BCC
:10082800023A0319EE2B013A0319F22B0E3A031977
:10083800F62B033A0319FA2B212C08004F2C101021
:100848008F018E01AF0189015F30A5002508AE0038
:100858005F30A5002508AD005F30A5002508AC0075
:100868005F30A5002508AB0061300A128A11B22456
:100878000A128A115E2C2F08A50001300310A50D5D
:10088800FF3E031D422C0310250D0A128A11202356
:100898000A128A115E2C831203132F08A500A601E1
:1008A8002608003A0319592C3F2C25081F3A03192A
:1008B800232C3F2C0800762C10108F018E01AF01DD
:1008C8008901852C2F08A60001300310A60DFF3ED4
:1008D800031D692C0310260D0A128A117A230A12A5
:1008E8008A11852C831203132F08A600A701270855
:1008F800003A0319802C662C26081F3A0319602C2D
:10090800662C080083120313A10020088312031722
:100918008D00831203132108831203178C0083169A
:1009280003170C158B1355308D00AA308D008C14CD
:100938008B178C18A02CA12C9D2C0C11080083124D
:100948000313A0002008831203178D0083160317D2
:100958008C130C14831203170C080800831203135A
:10096800A0002008990083160313981CBC2CBD2CEA
:04097800B72C080090
:04400E00F420FF3F5C
:00000001FF
