:020000040000FA
:060000000A128A110E280D
:10000800FE00030EF3000408F4000A08F5000A12C3
:100018008A1137290A128A111128F601F701831269
:100028000313AB01AC01AD01AE01AF01B001B101E9
:10003800B20183010A128A11532A831203139F18EB
:1000480026282728C1289E281E08A0002008AF00BF
:10005800C1281F08C33908389F00A0302F02031C8D
:10006800362837283B28A030A0002008AF000B30E6
:100078002F02031840284128C1280A30A000200870
:10008800AF00C1281E08A0002008AE00C1281F0824
:10009800C3390C389F00A0302E02031C5428552861
:1000A8005928A030A0002008AE000B302E020318FB
:1000B8005E285F28C1280A30A0002008AE00C128A9
:1000C8001E08A0002008AD00C128C3309F05A0303D
:1000D8002D02031C702871287528A030A000200864
:1000E800AD000B302D0203187A287B28C1280A306E
:1000F800A0002008AD00C1281E08A0002008B000FC
:10010800C1281F08C33904389F00A0303002031CDF
:100118008E288F289328A030A0002008B0000B302C
:100128003002031898289928C1280A30A00020080E
:10013800B000C12832081F39A000A1012108003AE7
:100148000319A728C1282008003A03192828013ACA
:1001580003192D28023A03194628073A03194B2890
:10016800023A03196428013A031969280E3A031957
:100178008028033A03198528C12808000F30831600
:100188000317880089010F30831603138500073091
:100198008600823087008801890183120313850154
:1001A8008601870188018901AB017030831603132A
:1001B8008F040F14831203131008CF3920389000CE
:1001C8003C308F00AF308E0010100B118B160C10C6
:1001D800831603130C140B108B110B178C168B172B
:1001E800161496141615831203131F083F39803806
:1001F8009F00C3309F059F101F14831603139F137E
:100208009F121F12F93092000F30831203139D04BE
:100218000F309B008C100330920412158C1C15298A
:100228001629122980308316031387000C30990091
:10023800181198168312031318168316031318122D
:10024800831203139817831603130F148112811155
:100258000111811401140B118330831203138100DF
:10026800B212321308000B1D3A293B295329831275
:10027800031332081F39F200F20A32087206E03915
:100288007206B2000B110A128A11A7220A128A11E9
:1002980083120313321F5129522953299F148312A1
:1002A80003130C1C582959296329B2170130F2008D
:1002B8007208AB070C103C308F00AF308E000B1C5F
:1002C800662967297929061C6A296B297929031067
:1002D800321F031403187129752983120313321767
:1002E80078298312031332130B100B1C7C297D29E8
:1002F8008D29861C802981298D29321F84298529E9
:10030800862910140914321F8A298B298C29B217BF
:100318000B100B108C1E9129922998291A08F200AB
:100328007208AC0031148C1275088A0074088400B5
:10033800730E8300FE0E7E0E090083120313A300C2
:10034800A401DA29230824070A128A116E230A1243
:100358008A1183120313A1002108B000F029230891
:1003680024070A128A116E230A128A1183120313B0
:10037800A1002108AF00F029230824070A128A11D6
:100388006E230A128A1183120313A1002108AE00FA
:10039800F029230824070A128A116E230A128A11E7
:1003A80083120313A1002108AD00F0292408A1003D
:1003B800A2012208003A0319E229F0292108003A8B
:1003C8000319A629013A0319B329033A0319C029C5
:1003D800013A0319CD29F0290130A1002108A40709
:1003E80004302402031CF929FA29DA2908008312A7
:1003F8000313A400A501302A24082507A200220817
:10040800A00030080A128A114B230A128A11462AC0
:1004180024082507A2002208A0002F080A128A1122
:100428004B230A128A11462A24082507A20022080B
:10043800A0002E080A128A114B230A128A11462A92
:1004480024082507A2002208A0002D080A128A11F4
:100458004B230A128A11462A2508A200A301230861
:10046800003A0319382A462A2208003A0319002AB2
:10047800013A03190C2A033A0319182A013A0319F5
:10048800242A462A013083120313A2002208A50752
:1004980004302502031C512A522A302A08000A1265
:1004A8008A11C2200A128A118E2A8613311C5D2AEB
:1004B8005E2A712A632A10140914AC01702A2C08C8
:1004C800A800A9012908003A03196B2A702A2808EC
:1004D800313A03195F2A702A3110101C742A752AC0
:1004E8008E2A0A128A11F7220A128A118E2A861770
:1004F800B21F7F2A802A882A0A128A1124230A1204
:100508008A1183120313B2130A128A1121200A12C4
:100518008A118E2A83120313320EA800A80C280C05
:100528000139A900AA012A08003A03199C2A8E2A2F
:100538002908003A0319592A013A03197B2A8E2AF5
:100548000A128A110E288312031332081F390F3A30
:10055800031DAF2AB02AD32AE030B205D32A3008C7
:1005680081000814F62A300981000810F62A2F089D
:1005780081008814F62A2F0981008810F62A2E088F
:1005880081000815F62A2E0981000811F62A2D087F
:1005980081008815F62A2D0981008811F62A32086B
:1005A8001F39F000F1017108003A0319DC2AF62A14
:1005B8007008003A0319B32A013A0319B72A023A14
:1005C8000319BB2A073A0319BF2A023A0319C32A97
:1005D800013A0319C72A0E3A0319CB2A033A031919
:1005E800CF2AF62A0800142B10108F018E01AB01B8
:1005F800890161300A128A117D230A128A11232B7C
:100608002B08A50001300310A50DFF3E031D072B85
:100618000310250D0A128A11A1210A128A11232B0F
:10062800831203132B08A500A6012608003A031914
:100638001E2B042B25081F3A0319F82A042B08003F
:100648003B2B10108F018E01AB0189014A2B2B081F
:10065800A60001300310A60DFF3E031D2E2B03102C
:10066800260D0A128A11FB210A128A114A2B8312BB
:1006780003132B08A600A7012708003A0319452BE6
:100688002B2B26081F3A0319252B2B2B0800831226
:100698000313A1002008831203178D00831203138C
:1006A8002108831203178C00831603170C158B136C
:1006B8008B1B5F2B602B5C2B5530831603178D002B
:1006C800AA308D008C148B178C186B2B6C2B682B15
:1006D8000C11080083120313A000200883120317CB
:1006E8008D00831603178C130C14831203170C0840
:1006F800080083120313A00020089900831603132F
:0A070800981C872B882B822B080019
:04400E00F420FF3F5C
:00000001FF
