:020000040000FA
:060000000A128A110C280F
:10000800FE00030EF1000A08F2000A128A1187297D
:100018000A128A110F28F701F801F9018312031354
:10002800A001A101A201A301A401A501A6018301C8
:100038000A128A111F280A128A1156220A128A11D4
:10004800791F272828286A280A128A11E6200A1206
:100058008A118312031386172610F91F34283528AE
:10006800DD28522800300A128A11A7220A128A11A2
:10007800682805300A128A11A7220A128A116828EC
:100088000A300A128A11A7220A128A1168280F3028
:100098000A128A11A7220A128A1168280908A900D7
:1000A800AA012A08003A03195A2868282908003A98
:1000B80003193628013A03193D28033A031944283D
:1000C800013A03194B286828F913DD288312031312
:1000D8008613A61C70287128DD28CC2800300A1247
:1000E8008A110F230A128A1183120313A9002908FF
:1000F800F80001300A128A110F230A128A1183129A
:100108000313A9002908F70002300A128A110F23E5
:100118000A128A1183120313A9002908A5000330C3
:100128000A128A110F230A128A1183120313A900D3
:100138002908A400DC2805300A128A110F230A12A4
:100148008A1183120313A9002908F80006300A123D
:100158008A110F230A128A1183120313A90029088E
:10016800F70007300A128A110F230A128A11831224
:100178000313A9002908A50008300A128A110F23C1
:100188000A128A1183120313A9002908A400DC2883
:100198002308A900AA012A08003A0319D428DC2850
:1001A8002908303A03197228013A03199F28DC28D4
:1001B800A6100A128A11F3210A128A1124280A1297
:1001C8008A110C28831203139F18EB28EC28862920
:1001D80063291E08F3007308F70086291F08C3392E
:1001E80008389F00BF307702031CFB28FC28002931
:1001F800BE30F3007308F7000A30770203180529A8
:10020800062986290A30F3007308F70086291E0894
:10021800F3007308A50086291F08C3390C389F000E
:10022800BF302502031C19291A291E29BE30F300E4
:100238007308A5000A3025020318232924298629D2
:100248000A30F3007308A50086291E08F300730816
:10025800A4008629C3309F05BF302402031C35291A
:1002680036293A29BE30F3007308A4000A30240264
:1002780003183F29402986290A30F3007308A4008F
:1002880086291E08F3007308F80086291F08C33959
:1002980004389F00BF307802031C53295429582979
:1002A800BE30F3007308F8000A30780203185D299D
:1002B8005E2986290A30F3007308F8008629790830
:1002C8001F39F300F4017408003A03196C298629D0
:1002D8007308003A0319ED28013A0319F228023A83
:1002E80003190B29073A03191029023A0319292976
:1002F800013A03192E290E3A03194529033A03191D
:100308004A29862908000B1D8A298B299D297908E5
:100318001F39F000F00A79087006E0397006F90014
:10032800F9160B11791F99299A299D29831203130C
:100338009F140B1CA029A129B12983120313061CA1
:10034800A629A729B1290310791F03140318AD2979
:10035800AF297917B02979130B100B1CB429B529CB
:10036800BD2983120313861CBA29BB29BD29F91795
:100378000B100B1CC029C129D32983120313061D96
:10038800C629C729D3290130F0007008890704302D
:100398000902031CD029D129D22989010B100B107D
:1003A800831203138C1ED929DA29EC291A08F000C4
:1003B8007008A3000310261C03140318E429E82975
:1003C800831203132614EB29831203132610A61491
:1003D80072088A00710E8300FE0E7E0E0900F91E57
:1003E800F629F729552A79081F390F3A031DFD29DF
:1003F800FE29002AE030F905F912322A7809831219
:10040800031381000810552A77098312031381000A
:100418008810552A83120313250981000811552ACB
:1004280083120313240981008811552A780883123E
:10043800031381000814552A7708831203138100D7
:100448008814552A83120313250881000815552A94
:1004580083120313240881008815552A79081F3947
:10046800F300F4017408003A03193B2A552A73086B
:10047800003A03191A2A013A0319022A023A0319FF
:10048800202A073A0319082A023A0319262A013AA8
:1004980003190E2A0E3A03192C2A033A0319142AAF
:1004A800552A08000F3083160317880089010F307A
:1004B8008316031385000730860080308700880183
:1004C8008901831203138501860187018801890147
:1004D8007030831603138F040F140B118B160B1037
:1004E8008B110B178C168B1716149614161583126E
:1004F80003131F083F3980389F00C3309F059F10A2
:100508001F14831603139F139F121F120C30990098
:10051800181198168312031318168316031318124A
:10052800831203139817831603130F148112811172
:100538000111811401140B118330831203138100FC
:10054800F9127913080083120313A700A8012708DA
:100558002807F5007508A100C52A7808F500750870
:10056800A000DB2A7708F5007508A000DB2A25081B
:10057800F5007508A000DB2A2408F5007508A0001E
:10058800DB2A2808F500F6017608003A0319CD2A77
:10059800DB2A7508003A0319B12A013A0319B62A69
:1005A800033A0319BB2A013A0319C02ADB2A210896
:1005B800F5007508F30020080A128A11F2220A12BF
:1005C8008A110130F500750883120313A807043057
:1005D8002802031CF02AF12AAB2A0800F400730849
:1005E800831203178D0074088C00831603170C15EB
:1005F8008B138B1B002B012BFD2A553083160317F9
:100608008D00AA308D008C148C180B2B0C2B082B0A
:100618008B170C110800F3007308831203178D0061
:10062800831603178C130C14831203170C08080085
:04400E00F420FF3F5C
:00000001FF
