:020000040000FA
:060000000A128A110E280D
:10000800FE00030EF3000408F4000A08F5000A12C3
:100018008A11AE2A0A128A111128F601F7018312F1
:100028000313AF01B001B101B20183010A128A11B1
:100038002A29831203139F182228232829290629ED
:10004800831603178C1829282A28292983120313B1
:100058001F0CA000200C0F39013A031D3428352845
:1000680029291E08A0002008AD0029298316031796
:100078008C183F2840284628831203131F08C339C9
:1000880008389F00A030831203132D02031C4D284B
:100098004E285228A030A0002008AD000B302D02B9
:1000A80003185728582829290A30A0002008AD002D
:1000B8002929831603178C18622863282929831293
:1000C80003131F0CA000200C0F39023A031D6D28E2
:1000D8006E2829291E08A0002008AC0029298316AB
:1000E80003178C18782879287F28831203131F0890
:1000F800C3390C389F00A030831203132C02031C51
:10010800862887288B28A030A0002008AC000B3058
:100118002C0203189028912829290A30A0002008C9
:10012800AC002929831603178C189B289C28292999
:10013800831203131F0CA000200C0F39033A031D70
:10014800A628A72829291E08A0002008AB002929CD
:10015800831603178C18B128B228B628C330831227
:1001680003139F05A030831203132B02031CBD2821
:10017800BE28C228A030A0002008AB000B302B02FC
:100188000318C728C82829290A30A0002008AB006E
:100198002929831603178C18D228D32829298312D2
:1001A80003131F0CA000200C0F39003A031DDD2893
:1001B800DE2829291E08A0002008AE002929831658
:1001C80003178C18E828E928EF28831203131F085F
:1001D800C33904389F00A030831203132E02031C76
:1001E800F628F728FB28A030A0002008AE000B3026
:1001F8002E0203180029012929290A30A000200805
:10020800AE00292932081F39A000A1012108003AAF
:1002180003190F2929292008003A03192428013A2B
:1002280003193A28023A03195D28073A0319732873
:10023800023A03199628013A0319AC280E3A031911
:10024800CD28033A0319E328292908000A128A113C
:1002580028220A128A110F2A8613311C34293529BB
:10026800F2295F291014091483120313B00181299C
:10027800FF309B0062300A128A11AE240A128A11DA
:1002880038290F309B0063300A128A11AE240A12F3
:100298008A11382931155F30A8002808B000812953
:1002A800B1154F2931164F29B1164F293111B11106
:1002B8003112B11281293008A800A9012908003A91
:1002C8000319672981292808013A03193629033AAD
:1002D80003193C29013A03194529073A03194E29FC
:1002E800013A03195429033A03195629013A031903
:1002F80058290F3A03195A2981293110311D8529A6
:1003080086299E290B30300203188B298C299029C5
:100318000A30A8002808B000A0303002031C952934
:1003280096299A29A030A8002808B0003008A8000B
:100338002808AE00B11DA129A229BA290B30300224
:100348000318A729A829AC290A30A8002808B00052
:10035800A0303002031CB129B229B629A030A80068
:100368002808B0003008A8002808AD00311EBD29B3
:10037800BE29D6290B3030020318C329C429C8293D
:100388000A30A8002808B000A0303002031CCD298C
:10039800CE29D229A030A8002808B0003008A8002B
:1003A8002808AC00B11ED929DA29F2290B3030020D
:1003B8000318DF29E029E4290A30A8002808B0003A
:1003C800A0303002031CE929EA29EE29A030A80050
:1003D8002808B0003008A8002808AB00101CF52930
:1003E800F6290F2A0A128A111E240A128A110F2AC4
:1003F8008617B21F002A012A092A0A128A115B24C9
:100408000A128A1183120313B2130A128A111D20C9
:100418000A128A110F2A83120313320EA800A80C9D
:10042800280C0139A900AA012A08003A03191D2A33
:100438000F2A2908003A03193029013A0319FC291F
:100448000F2A0A128A110E280F3083160317880004
:1004580089010F3083160313850007308600823028
:1004680087008801890183120313850186018701AA
:1004780088018901AF0131115F30A0002008AE006A
:100488005F30A0002008AD005F30A0002008AC005D
:100498005F30A0002008AB007030831603138F0470
:1004A8000F14831203131008CF39203890003C3002
:1004B8008F00AF308E0010100B118B160C108316A6
:1004C80003130C140B108B110B178C168B171614A7
:1004D80096141615831203131F083F3980389F009E
:1004E800C3309F059F101F14831603139F139F1279
:1004F8001F12F93092000F30831203139D040F303E
:100508009B008C100330920412158C1C8C2A8D2AA7
:10051800892A80308316031387000C30990018113C
:1005280098168312031318168316031318128312CE
:1005380003139817831603130F14811281110111E5
:10054800811401140B118330831203138100B2123A
:10055800321308000B1DB12AB22ACA2A83120313C8
:1005680032081F39F200F20A32087206E0397206C0
:10057800B2000B110A128A11CE230A128A118312B1
:100588000313321FC82AC92ACA2A9F1483120313C5
:100598000C1CCF2AD02ADA2AB2170130F2007208CE
:1005A800AF070C103C308F00AF308E000B1CDD2ADB
:1005B800DE2AF42A061CE12AE22AF42A1018E52A7F
:1005C800E62AF32A0310321F03140318EC2AF02A30
:1005D800831203133217F32A8312031332130B10F7
:1005E8000B1CF72AF82A082B861CFB2AFC2A082B46
:1005F800321FFF2A002B022B10140914321F052B5F
:10060800062B072BB2170B100B108C1E0C2B0D2B67
:10061800132B1A08F2007208B00031148C127508F6
:100628008A0074088400730E8300FE0E7E0E090093
:1006380083120313A300A401552B230824070A12CD
:100648008A119F240A128A1183120313A100210818
:10065800AE006B2B230824070A128A119F240A1262
:100668008A1183120313A1002108AD006B2B230804
:1006780024070A128A119F240A128A11831203136B
:10068800A1002108AC006B2B230824070A128A1149
:100698009F240A128A1183120313A1002108AB00B8
:1006A8006B2B2408A100A2012208003A03195D2B34
:1006B8006B2B2108003A0319212B013A03192E2B21
:1006C800033A03193B2B013A0319482B6B2B0130D2
:1006D800A1002108A40704302402031C742B752BE5
:1006E800552B080083120313A400A501AB2B240883
:1006F8002507A2002208A0002E080A128A118224C7
:100708000A128A11C12B24082507A2002208A0007A
:100718002D080A128A1182240A128A11C12B240870
:100728002507A2002208A0002C080A128A11822498
:100738000A128A11C12B24082507A2002208A0004A
:100748002B080A128A1182240A128A11C12B250841
:10075800A200A3012308003A0319B32BC12B2208D6
:10076800003A03197B2B013A0319872B033A031923
:10077800932B013A03199F2BC12B013083120313CA
:10078800A2002208A50704302502031CCC2BCD2B80
:10079800AB2B08008312031332081F390F3A031DCD
:1007A800D62BD72BFA2BE030B205FA2B2E08810076
:1007B80008141D2C2E09810008101D2C2D088100FD
:1007C80088141D2C2D09810088101D2C2C088100EF
:1007D80008151D2C2C09810008111D2C2B088100DF
:1007E80088151D2C2B09810088111D2C32081F39F2
:1007F800F000F1017108003A0319032C1D2C700850
:10080800003A0319DA2B013A0319DE2B023A0319CD
:10081800E22B073A0319E62B023A0319EA2B013AAD
:100828000319EE2B0E3A0319F22B033A0319F62B90
:100838001D2C08004B2C10108F018E01AF0189016F
:100848005F30A5002508AE005F30A5002508AD0083
:100858005F30A5002508AC005F30A5002508AB0077
:1008680061300A128A11AE240A128A115A2C2F08F2
:10087800A50001300310A50DFF3E031D3E2C0310FB
:10088800250D0A128A111C230A128A115A2C831266
:1008980003132F08A500A6012608003A0319552CB2
:1008A8003B2C25081F3A03191F2C3B2C0800722CDF
:1008B80010108F018E01AF018901812C2F08A6002D
:1008C80001300310A60DFF3E031D652C0310260DF5
:1008D8000A128A1176230A128A11812C83120313B1
:1008E8002F08A600A7012708003A03197C2C622CC0
:1008F80026081F3A03195C2C622C08008312031384
:10090800A1002008831203178D0083120313210806
:10091800831203178C00831603170C158B1355309D
:100928008D00AA308D008C148B178C189C2C9D2C54
:10093800992C0C11080083120313A00020088312BD
:1009480003178D00831603178C130C1483120317D7
:100958000C08080083120313A000200899008316CE
:0C0968000313981CB82CB92CB32C080009
:04400E00F420FF3F5C
:00000001FF
