:020000040000FA
:060000000A128A110E280D
:10000800FE00030EF3000408F4000A08F5000A12C3
:100018008A11A5290A128A111128F601F7018312FB
:100028000313AB01AC01AD01AE01AF01B001B101E9
:10003800B20183010A128A113729831203139F1808
:1000480026282728C1289E281E08A0002008AF00BF
:10005800C1281F08C33908389F00A0302F02031C8D
:10006800362837283B28A030A0002008AF000B30E6
:100078002F02031840284128C1280A30A000200870
:10008800AF00C1281E08A0002008AE00C1281F0824
:10009800C3390C389F00A0302E02031C5428552861
:1000A8005928A030A0002008AE000B302E020318FB
:1000B8005E285F28C1280A30A0002008AE00C128A9
:1000C8001E08A0002008AD00C128C3309F05A0303D
:1000D8002D02031C702871287528A030A000200864
:1000E800AD000B302D0203187A287B28C1280A306E
:1000F800A0002008AD00C1281E08A0002008B000FC
:10010800C1281F08C33904389F00A0303002031CDF
:100118008E288F289328A030A0002008B0000B302C
:100128003002031898289928C1280A30A00020080E
:10013800B000C12832081F39A000A1012108003AE7
:100148000319A728C1282008003A03192828013ACA
:1001580003192D28023A03194628073A03194B2890
:10016800023A03196428013A031969280E3A031957
:100178008028033A03198528C12808000F30831600
:100188000317880089010F30831603138500073091
:100198008600823087008801890183120313850154
:1001A8008601870188018901AB017030831603132A
:1001B8008F040F14831203131008CF3920389000CE
:1001C8003C308F00AF308E0010100B118B160C10C6
:1001D800831603130C140B108B110B178C168B172B
:1001E800161496141615831203131F083F39803806
:1001F8009F00C3309F059F101F14831603139F137E
:100208009F121F12F93092000F30831203139D04BE
:100218000F309B008C100330920412158C1C15298A
:100228001629122980308316031387000C30990091
:10023800181198168312031318168316031318122D
:10024800831203139817831603130F148112811155
:100258000111811401140B118330831203138100DF
:10026800B212321308000A128A11C2200A128A1125
:100278008C298613311C412942296F295B291014C6
:10028800091483120313AC016E29FF309B006230FE
:100298000A128A119B230A128A1145290F309B00E2
:1002A80063300A128A119B230A128A1145292C08E5
:1002B800A800A9012908003A031963296E2928080A
:1002C800313A03194329033A03194929013A031911
:1002D80052296E293110101C722973298C290A128F
:1002E8008A1115230A128A118C298617B21F7D29B3
:1002F8007E2986290A128A1142230A128A11831238
:100308000313B2130A128A1121200A128A118C29A6
:1003180083120313320EA800A80C280C0139A90077
:10032800AA012A08003A03199A298C292908003AAF
:1003380003193D29013A031979298C290A128A11CE
:100348000E280B1DA829A929C129831203133208D5
:100358001F39F200F20A32087206E0397206B2005A
:100368000B110A128A11C5220A128A118312031369
:10037800321FBF29C029C1299F14831203130C1CE3
:10038800C629C729D129B2170130F2007208AB0774
:100398000C103C308F00AF308E000B1CD429D529AF
:1003A800EB29061CD829D929EB291018DC29DD29C5
:1003B800EA290310321F03140318E329E7298312DB
:1003C80003133217EA298312031332130B100B1C81
:1003D800EE29EF29FF29861CF229F329FF29321F6C
:1003E800F629F729F92910140914321FFC29FD29C7
:1003F800FE29B2170B100B108C1E032A042A0A2A96
:100408001A08F2007208AC0031148C1275088A00C0
:1004180074088400730E8300FE0E7E0E090083129A
:100428000313A300A4014C2A230824070A128A11E3
:100438008C230A128A1183120313A1002108B00029
:10044800622A230824070A128A118C230A128A11A5
:1004580083120313A1002108AF00622A230824078E
:100468000A128A118C230A128A1183120313A1001B
:100478002108AE00622A230824070A128A118C2355
:100488000A128A1183120313A1002108AD00622AFF
:100498002408A100A2012208003A0319542A622A5A
:1004A8002108003A0319182A013A0319252A033AA0
:1004B8000319322A013A03193F2A622A0130A1009E
:1004C8002108A40704302402031C6B2A6C2A4C2A36
:1004D800080083120313A400A501A22A24082507F3
:1004E800A2002208A00030080A128A1169230A1201
:1004F8008A11B82A24082507A2002208A0002F087C
:100508000A128A1169230A128A11B82A24082507AF
:10051800A2002208A0002E080A128A1169230A12D2
:100528008A11B82A24082507A2002208A0002D084D
:100538000A128A1169230A128A11B82A2508A20008
:10054800A3012308003A0319AA2AB82A2208003A64
:100558000319722A013A03197E2A033A03198A2ACF
:10056800013A0319962AB82A013083120313A2000C
:100578002208A50704302502031CC32AC42AA22A7C
:1005880008008312031332081F390F3A031DCD2ABE
:10059800CE2AF12AE030B205F12A30088100081489
:1005A800142B300981000810142B2F08810088149F
:1005B800142B2F0981008810142B2E088100081590
:1005C800142B2E0981000811142B2D088100881581
:1005D800142B2D0981008811142B32081F39F000C3
:1005E800F1017108003A0319FA2A142B7008003A2D
:1005F8000319D12A013A0319D52A023A0319D92A2B
:10060800073A0319DD2A023A0319E12A013A0319C4
:10061800E52A0E3A0319E92A033A0319ED2A142B9D
:100628000800322B10108F018E01AB018901613057
:100638000A128A119B230A128A11412B2B08A50042
:1006480001300310A50DFF3E031D252B0310250DBA
:100658000A128A1113220A128A11412B83120313D8
:100668002B08A500A6012608003A03193C2B222BCB
:1006780025081F3A0319162B222B0800592B101096
:100688008F018E01AB018901682B2B08A600013070
:100698000310A60DFF3E031D4C2B0310260D0A1256
:1006A8008A116D220A128A11682B831203132B08F0
:1006B800A600A7012708003A0319632B492B26082F
:1006C8001F3A0319432B492B080083120313A10077
:1006D8002008831203178D00831203132108831245
:1006E80003178C00831603170C158B138B1B7D2B9C
:1006F8007E2B7A2B5530831603178D00AA308D0078
:100708008C148B178C18892B8A2B862B0C110800BC
:1007180083120313A0002008831203178D00831689
:1007280003178C130C14831203170C080800831288
:100738000313A0002008990083160313981CA52B07
:06074800A62BA02B080007
:04400E00F420FF3F5C
:00000001FF
