:020000040000FA
:060000000A128A110E280D
:10000800FE00030EF3000408F4000A08F5000A12C3
:100018008A11C2280A128A111128F601F701F8017B
:1000280083120313AB01AC01AD01AE01AF01B00106
:10003800B10183010A128A11972A831203139F18A8
:1000480026282728C1289E281E08A0002008AE00C0
:10005800C1281F08C33908389F00A0302E02031C8E
:10006800362837283B28A030A0002008AE000B30E7
:100078002E02031840284128C1280A30A000200871
:10008800AE00C1281E08A0002008AD00C1281F0826
:10009800C3390C389F00A0302D02031C5428552862
:1000A8005928A030A0002008AD000B302D020318FD
:1000B8005E285F28C1280A30A0002008AD00C128AA
:1000C8001E08A0002008AC00C128C3309F05A0303E
:1000D8002C02031C702871287528A030A000200865
:1000E800AC000B302C0203187A287B28C1280A3070
:1000F800A0002008AC00C1281E08A0002008AF00FE
:10010800C1281F08C33904389F00A0302F02031CE0
:100118008E288F289328A030A0002008AF000B302D
:100128002F02031898289928C1280A30A00020080F
:10013800AF00C12831081F39A000A1012108003AE9
:100148000319A728C1282008003A03192828013ACA
:1001580003192D28023A03194628073A03194B2890
:10016800023A03196428013A031969280E3A031957
:100178008028033A03198528C12808000B1DC528C3
:10018800C628DE288312031331081F39F200F20A49
:1001980031087206E0397206B1000B110A128A1191
:1001A80047220A128A1183120313311FDC28DD2823
:1001B800DE289F14831203130C1CE328E428EE287E
:1001C800B1170130F2007208AB070C103C308F00F9
:1001D800AF308E000B1CF128F2280429061CF528E4
:1001E800F62804290310311F03140318FC280029DA
:1001F80083120313311703298312031331130B10CE
:100208000B1C072908291429861C0B290C291429D9
:1002180010140914311F112912291329B1170B10B1
:100228000B108C1E182919292B291A08F20072089C
:10023800F8000310301C03140318232927298312FC
:10024800031330142A29831203133010B0147508CD
:100258008A0074088400730E8300FE0E7E0E090067
:100268000F3083160317880089010F308316031394
:100278008500073086008030870088018901831255
:10028800031385018601870188018901AB0170305C
:10029800831603138F040F14831203131008CF3926
:1002A800203890003C308F00AF308E0010100B11BA
:1002B8008B160C10831603130C140B108B110B17D1
:1002C8008C168B17161496141615831203131F0811
:1002D8003F3980389F00C3309F059F101F14831635
:1002E80003139F139F121F120C30990018119816B0
:1002F8008312031318168316031318128312031399
:100308009817831603130F14811281110111811498
:1003180001140B118330831203138100B1123113BE
:10032800080083120313A300A401CE29230824077D
:100338000A128A1146230A128A1183120313A10092
:100348002108AF00E429230824070A128A1146234A
:100358000A128A1183120313A1002108AE00E429AE
:10036800230824070A128A1146230A128A118312C3
:100378000313A1002108AD00E429230824070A1269
:100388008A1146230A128A1183120313A100210835
:10039800AC00E4292408A100A2012208003A0319AC
:1003A800D629E4292108003A03199A29013A0319A0
:1003B800A729033A0319B429013A0319C129E429E1
:1003C8000130A1002108A40704302402031CED29F0
:1003D800EE29CE29080083120313A400A501242ABC
:1003E80024082507A2002208A0002F080A128A1153
:1003F80029230A128A113A2A24082507A20022086A
:10040800A0002E080A128A1129230A128A113A2AF0
:1004180024082507A2002208A0002D080A128A1124
:1004280029230A128A113A2A24082507A200220839
:10043800A0002C080A128A1129230A128A113A2AC2
:100448002508A200A3012308003A03192C2A3A2AF6
:100458002208003A0319F429013A0319002A033A39
:1004680003190C2A013A0319182A3A2A013083126F
:100478000313A2002208A50704302502031C452AFD
:10048800462A242A08008312031331081F39123A16
:10049800031D4F2A502A732AE030B105732A2F080A
:1004A80081000814962A2F0981000810962A2E0820
:1004B80081008814962A2E0981008810962A2D0812
:1004C80081000815962A2D0981000811962A2C0802
:1004D80081008815962A2C0981008811962A3108EE
:1004E8001F39F000F1017108003A03197C2A962A95
:1004F8007008003A0319532A013A0319572A023A95
:1005080003195B2A073A03195F2A023A0319632A77
:10051800013A0319672A0E3A03196B2A033A031999
:100528006F2A962A08000A128A1134210A128A119F
:10053800C22A8613101CA12AA22AC22A0A128A11C8
:10054800DB220A128A11C22AB11BAB2AAC2AB12AB1
:100558000A128A1121200A128A118312031386179C
:100568003010B11FB82AB92AC22A0A128A110223E6
:100578000A128A1183120313B113C22A83120313B6
:10058800310EA800A80C280C0139A900AA012A08D4
:10059800003A0319D02AC22A2908003A03199D2AC9
:1005A800013A0319A82AC22A0A128A110E28F22A25
:1005B80010108F018E01AB018901012B2B08A500BA
:1005C80001300310A50DFF3E031DE52A0310250D7C
:1005D8000A128A1195210A128A11012B8312031318
:1005E8002B08A500A6012608003A0319FC2AE22ACE
:1005F80025081F3A0319DC2AE22A0800192B1010D3
:100608008F018E01AB018901282B2B08A600013030
:100618000310A60DFF3E031D0C2B0310260D0A1216
:100628008A11EF210A128A11282B831203132B082F
:10063800A600A7012708003A0319232B092B26082F
:100648001F3A0319032B092B080083120313A10077
:100658002008831203178D008312031321088312C5
:1006680003178C00831603170C158B1355308D0058
:10067800AA308D008C148B178C18432B442B402BDD
:100688000C11080083120313A0002008831203171B
:100698008D00831603178C130C14831203170C0890
:0206A800080048
:04400E00F420FF3F5C
:00000001FF
