:020000040000FA
:060000000A128A110E280D
:10000800FE00030EF3000408F4000A08F5000A12C3
:100018008A11A22A0A128A111128F601F7018312FD
:100028000313AB01AC01AD01AE01AF01B001B101E9
:10003800B20183010A128A112E29831203139F1811
:10004800262827282D290A29831603178C182D28D6
:100058002E282D29831203131F0CA000200C0F3902
:10006800013A031D382839282D291E08A000200828
:10007800AF002D29831603178C18432844284A28D3
:10008800831203131F08C33908389F00A030831256
:1000980003132F02031C512852285628A030A00011
:1000A8002008AF000B302F0203185B285C282D298D
:1000B8000A30A0002008AF002D29831603178C18DA
:1000C800662867282D29831203131F0CA000200C13
:1000D8000F39023A031D712872282D291E08A00025
:1000E8002008AE002D29831603178C187C287D283C
:1000F8008328831203131F08C3390C389F00A030CC
:10010800831203132E02031C8A288B288F28A03001
:10011800A0002008AE000B302E0203189428952862
:100128002D290A30A0002008AE002D2983160317B8
:100138008C189F28A0282D29831203131F0CA000B8
:10014800200C0F39033A031DAA28AB282D291E08B5
:10015800A0002008AD002D29831603178C18B52898
:10016800B628BA28C330831203139F05A030831220
:1001780003132D02031CC128C228C628A030A000E2
:100188002008AD000B302D020318CB28CC282D29D0
:100198000A30A0002008AD002D29831603178C18FB
:1001A800D628D7282D29831203131F0CA000200C52
:1001B8000F39003A031DE128E2282D291E08A00066
:1001C8002008B0002D29831603178C18EC28ED2879
:1001D800F328831203131F08C33904389F00A03083
:1001E800831203133002031CFA28FB28FF28A030CF
:1001F800A0002008B0000B3030020318042905299C
:100208002D290A30A0002008B0002D2932081F39F6
:10021800A000A1012108003A031913292D2920085B
:10022800003A03192828013A03193E28023A03190B
:100238006128073A03197728023A03199A28013ADC
:100248000319B0280E3A0319D128033A0319E728ED
:100258002D2908000A128A112C220A128A11132A3F
:100268008613311C38293929F629632910140914F1
:1002780083120313AC018529FF309B0062300A12F8
:100288008A1192240A128A113C290F309B0063308C
:100298000A128A1192240A128A113C2931155F30F8
:1002A800A8002808AC008529B1155329311653290F
:1002B800B11653293111B1113112B11285292C0807
:1002C800A800A9012908003A03196B2985292808DB
:1002D800013A03193A29033A03194029013A031943
:1002E8004929073A03195229013A03195829033AA7
:1002F80003195A29013A03195C290F3A03195E298F
:1003080085293110311D89298A29A2290B302C020F
:1003180003188F29902994290A30A8002808AC00CE
:10032800A0302C02031C99299A299E29A030A800E4
:100338002808AC002C08A8002808B000B11DA52981
:10034800A629BE290B302C020318AB29AC29B029E9
:100358000A30A8002808AC00A0302C02031CB529DC
:10036800B629BA29A030A8002808AC002C08A80093
:100378002808AF00311EC129C229DA290B302C0206
:100388000318C729C829CC290A30A8002808AC00B6
:10039800A0302C02031CD129D229D629A030A800CC
:1003A8002808AC002C08A8002808AE00B11EDD29DA
:1003B800DE29F6290B302C020318E329E429E82961
:1003C8000A30A8002808AC00A0302C02031CED2934
:1003D800EE29F229A030A8002808AC002C08A800B3
:1003E8002808AD00101CF929FA29132A0A128A11C3
:1003F80012240A128A11132A8617B21F042A052A00
:100408000D2A0A128A113F240A128A118312031331
:10041800B2130A128A1121200A128A11132A83128E
:100428000313320EA800A80C280C0139A900AA0150
:100438002A08003A0319212A132A2908003A03191D
:100448003429013A0319002A132A0A128A110E289C
:100458000F3083160317880089010F3083160313A2
:100468008500073086008230870088018901831261
:10047800031385018601870188018901AB013111C8
:100488007030831603138F040F148312031310089C
:10049800CF39203890003C308F00AF308E001010DC
:1004A8000B118B160C10831603130C140B108B11E5
:1004B8000B178C168B171614961416158312031324
:1004C8001F083F3980389F00C3309F059F101F14B5
:1004D800831603139F139F121F12F93092000F30D7
:1004E800831203139D040F309B008C100330920479
:1004F80012158C1C802A812A7D2A803083160313CA
:1005080087000C30990018119816831203131816D7
:1005180083160313181283120313981783160313F1
:100528000F14811281110111811401140B118330F0
:10053800831203138100B212321308000B1DA52A7F
:10054800A62ABE2A8312031332081F39F200F20AC0
:1005580032087206E0397206B2000B110A128A11CB
:10056800C2230A128A1183120313321FBC2ABD2A1E
:10057800BE2A9F14831203130C1CC32AC42ACE2A32
:10058800B2170130F2007208AB070C103C308F0034
:10059800AF308E000B1CD12AD22AE82A061CD52A95
:1005A800D62AE82A1018D92ADA2AE72A0310321F8D
:1005B80003140318E02AE42A831203133217E72AE4
:1005C8008312031332130B100B1CEB2AEC2AFC2AA0
:1005D800861CEF2AF02AFC2A321FF32AF42AF62A6C
:1005E80010140914321FF92AFA2AFB2AB2170B1021
:1005F8000B108C1E002B012B072B1A08F200720817
:10060800AC0031148C1275088A0074088400730ECB
:100618008300FE0E7E0E090083120313A300A401BB
:10062800492B230824070A128A1183240A128A11E3
:1006380083120313A1002108B0005F2B23082407AD
:100648000A128A1183240A128A1183120313A10041
:100658002108AF005F2B230824070A128A1183247C
:100668000A128A1183120313A1002108AE005F2B1E
:10067800230824070A128A1183240A128A11831272
:100688000313A1002108AD005F2B2408A100A201DB
:100698002208003A0319512B5F2B2108003A03194D
:1006A800152B013A0319222B033A03192F2B013A70
:1006B80003193C2B5F2B0130A1002108A40704304B
:1006C8002402031C682B692B492B0800831203138F
:1006D800A400A5019F2B24082507A2002208A0003A
:1006E80030080A128A1166240A128A11B52B2408C6
:1006F8002507A2002208A0002F080A128A116624E2
:100708000A128A11B52B24082507A2002208A00086
:100718002E080A128A1166240A128A11B52B240897
:100728002507A2002208A0002D080A128A116624B3
:100738000A128A11B52B2508A200A3012308003A42
:100748000319A72BB52B2208003A03196F2B013A7E
:1007580003197B2B033A0319872B013A0319932BAF
:10076800B52B013083120313A2002208A507043019
:100778002502031CC02BC12B9F2B080083120313D7
:1007880032081F390F3A031DCA2BCB2BEE2BE03052
:10079800B205EE2B300881000814112C30098100B5
:1007A8000810112C2F0881008814112C2F098100A2
:1007B8008810112C2E0881000815112C2E09810093
:1007C8000811112C2D0881008815112C2D09810084
:1007D8008811112C32081F39F000F1017108003A14
:1007E8000319F72B112C7008003A0319CE2B013A84
:1007F8000319D22B023A0319D62B073A0319DA2B1D
:10080800023A0319DE2B013A0319E22B0E3A0319B7
:10081800E62B033A0319EA2B112C08002F2C101091
:100828008F018E01AB01890161300A128A1192246D
:100838000A128A113E2C2B08A50001300310A50DC1
:10084800FF3E031D222C0310250D0A128A111023C6
:100858000A128A113E2C831203132B08A500A60145
:100868002608003A0319392C1F2C25081F3A0319AA
:10087800132C1F2C0800562C10108F018E01AB0171
:100888008901652C2B08A60001300310A60DFF3E38
:10089800031D492C0310260D0A128A116A230A1215
:1008A8008A11652C831203132B08A600A7012708B9
:1008B800003A0319602C462C26081F3A0319402CCD
:1008C800462C080083120313A10020088312031783
:1008D8008D00831203132108831203178C008316DB
:1008E80003170C158B1355308D00AA308D008C140E
:1008F8008B178C18802C812C7D2C0C1108008312EE
:100908000313A0002008831203178D008316031712
:100918008C130C14831203170C080800831203139A
:10092800A0002008990083160313981C9C2C9D2C6A
:04093800972C0800F0
:04400E00F420FF3F5C
:00000001FF
