:020000040000FA
:060000000A128A110E280D
:10000800FE00030EF3000408F4000A08F5000A12C3
:100018008A11E2280A128A111128F601F7018312BF
:100028000313AB01AC01AD01AE01AF01B001B101E9
:10003800B20183010A128A11CD29831203139F1872
:1000480026282728E128BE28831603178C182D2870
:100058002E28E128831203131E08A0002008AF00F1
:10006800E1281F08C33908389F00A0302F02031C5D
:100078003E283F284328A030A0002008AF000B30BE
:100088002F02031848284928E1280A30A000200830
:10009800AF00E128831603178C1853285428E12849
:1000A800831203131E08A0002008AE00E1281F08D1
:1000B800C3390C389F00A0302E02031C6428652821
:1000C8006928A030A0002008AE000B302E020318CB
:1000D8006E286F28E1280A30A0002008AE00E12829
:1000E800831603178C1879287A28E12883120313BA
:1000F8001E08A0002008AD00E128C3309F05A030ED
:100108002D02031C882889288D28A030A0002008EB
:10011800AD000B302D02031892289328E1280A30ED
:10012800A0002008AD00E128831603178C189D282D
:100138009E28E128831203131E08A0002008B0009F
:10014800E1281F08C33904389F00A0303002031C7F
:10015800AE28AF28B328A030A0002008B0000B308C
:1001680030020318B828B928E1280A30A00020086E
:10017800B000E12832081F39A000A1012108003A87
:100188000319C728E1282008003A03192828013A4A
:1001980003193528023A03194E28073A03195B2830
:1001A800023A03197428013A031981280E3A0319EF
:1001B8009828033A0319A528E12808000B1DE5280B
:1001C800E62806298312031332081F39F200F20ABF
:1001D80032087206E0397206B2000B110A128A114F
:1001E800ED220A128A1183120313321FFC28FD28FC
:1001F8000629831603178C18022903290629831256
:1002080003139F14831203130C1C0B290C291629A2
:10021800B2170130F2007208AB070C103C308F00A7
:10022800AF308E000B1C19291A293029061C1D29EC
:100238001E2930291018212922292F290310321F9D
:100248000314031828292C298312031332172F2982
:100258008312031332130B100B1C3329342944293E
:10026800861C372938294429321F3B293C293E2935
:1002780010140914321F412942294329B2170B10BF
:100288000B108C1E482949294F291A08F2007208B8
:10029800AC0031148C1275088A0074088400730E3F
:1002A8008300FE0E7E0E09000F30831603178800A8
:1002B80089010F30831603138500073086008230CA
:1002C800870088018901831203138501860187014C
:1002D80088018901AB017030831603138F040F1452
:1002E800831203131008CF39203890003C308F0058
:1002F800AF308E0010100B118B160C1083160313E1
:100308000C140B108B110B178C168B1716149614D4
:100318001615831203131F083F3980389F00C33016
:100328009F059F101F14831603139F139F121F12FC
:10033800F93092000F30831203139D040F309B0095
:100348008C100330920412158C1CAB29AC29A829F7
:1003580080308316031387000C3099001811981603
:100368008312031318168316031318128312031328
:100378009817831603130F14811281110111811428
:1003880001140B118330831203138100B21232134C
:1003980008000A128A1158210A128A11222A861381
:1003A800311CD729D829052AF129101409148312D8
:1003B8000313AC01042AFF309B0062300A128A1131
:1003C800BD230A128A11DB290F309B0063300A1201
:1003D8008A11BD230A128A11DB292C08A800A90159
:1003E8002908003A0319F929042A2808313A031977
:1003F800D929033A0319DF29013A0319E829042AFC
:100408003110101C082A092A222A0A128A113D23AF
:100418000A128A11222A8617B21F132A142A1C2AA2
:100428000A128A116A230A128A1183120313B21359
:100438000A128A1121200A128A11222A831203130E
:10044800320EA800A80C280C0139A900AA012A0814
:10045800003A0319302A222A2908003A0319D32915
:10046800013A03190F2A222A0A128A110E28831226
:100478000313A300A401742A230824070A128A116B
:10048800AE230A128A1183120313A1002108B000B7
:100498008A2A230824070A128A11AE230A128A110B
:1004A80083120313A1002108AF008A2A2308240716
:1004B8000A128A11AE230A128A1183120313A100A9
:1004C8002108AE008A2A230824070A128A11AE23BB
:1004D8000A128A1183120313A1002108AD008A2A87
:1004E8002408A100A2012208003A03197C2A8A2ABA
:1004F8002108003A0319402A013A03194D2A033A00
:1005080003195A2A013A0319672A8A2A0130A100D5
:100518002108A40704302402031C932A942A742A6D
:10052800080083120313A400A501CA2A240825077A
:10053800A2002208A00030080A128A1191230A1288
:100548008A11E02A24082507A2002208A0002F0803
:100558000A128A1191230A128A11E02A240825070F
:10056800A2002208A0002E080A128A1191230A125A
:100578008A11E02A24082507A2002208A0002D08D5
:100588000A128A1191230A128A11E02A2508A20068
:10059800A3012308003A0319D22AE02A2208003AC4
:1005A80003199A2A013A0319A62A033A0319B22A07
:1005B800013A0319BE2AE02A013083120313A2006C
:1005C8002208A50704302502031CEB2AEC2ACA2AB4
:1005D80008008312031332081F390F3A031DF52A46
:1005E800F62A192BE030B205192B300881000814BF
:1005F8003C2B3009810008103C2B2F0881008814FF
:100608003C2B2F09810088103C2B2E0881000815EF
:100618003C2B2E09810008113C2B2D0881008815E0
:100628003C2B2D09810088113C2B32081F39F00022
:10063800F1017108003A0319222B3C2B7008003A8B
:100648000319F92A013A0319FD2A023A0319012B61
:10065800073A0319052B023A0319092B013A031922
:100668000D2B0E3A0319112B033A0319152B3C2BAA
:1006780008005A2B10108F018E01AB0189016130DF
:100688000A128A11BD230A128A11692B2B08A500A8
:1006980001300310A50DFF3E031D4D2B0310250D42
:1006A8000A128A113B220A128A11692B8312031338
:1006B8002B08A500A6012608003A0319642B4A2B2B
:1006C80025081F3A03193E2B4A2B0800812B1010CE
:1006D8008F018E01AB018901902B2B08A6000130F8
:1006E8000310A60DFF3E031D742B0310260D0A12DE
:1006F8008A1195220A128A11902B831203132B0850
:10070800A600A7012708003A03198B2B712B26088E
:100718001F3A03196B2B712B080083120313A100D6
:100728002008831203178D008312031321088312F4
:1007380003178C00831603170C158B1355308D0087
:10074800AA308D008C148B178C18AB2BAC2BA82BD4
:100758000C11080083120313A0002008831203174A
:100768008D00831603178C130C14831203170C08BF
:10077800080083120313A0002008990083160313AE
:0A078800981CC72BC82BC22B0800D9
:04400E00F420FF3F5C
:00000001FF
