:020000040000FA
:060000000A128A110E280D
:10000800FE00030EF3000408F4000A08F5000A12C3
:100018008A11C3280A128A111128F601F701F8017A
:1000280083120313AB01AC01AD01AE01AF01B00106
:10003800B101B20183010A128A11852A83120313BE
:100048009F1827282828C2289F281E08A0002008B3
:10005800AF00C2281F08C33908389F00A0302F02FC
:10006800031C372838283C28A030A0002008AF00FF
:100078000B302F02031841284228C2280A30A0005A
:100088002008AF00C2281E08A0002008AE00C22821
:100098001F08C3390C389F00A0302E02031C5528B6
:1000A80056285A28A030A0002008AE000B302E0297
:1000B80003185F286028C2280A30A0002008AE0074
:1000C800C2281E08A0002008AD00C228C3309F0522
:1000D800A0302D02031C712872287628A030A000B9
:1000E8002008AD000B302D0203187B287C28C2287D
:1000F8000A30A0002008AD00C2281E08A000200871
:10010800B000C2281F08C33904389F00A03030024D
:10011800031C8F2890289428A030A0002008B00045
:100128000B303002031899289A28C2280A30A000F8
:100138002008B000C22832081F39A000A1012108F8
:10014800003A0319A828C2282008003A03192928C8
:10015800013A03192E28023A03194728073A0319C6
:100168004C28023A03196528013A03196A280E3AFD
:1001780003198128033A03198628C22808000B1D91
:10018800C628C728DF288312031332081F39F20054
:10019800F20A32087206E0397206B2000B110A122E
:1001A8008A11EE210A128A1183120313321FDD28E5
:1001B800DE28DF289F14831203130C1CE428E5288B
:1001C800EF28B2170130F2007208AB070C100B30A1
:1001D8008F00D1308E000B1CF228F3280529061C4D
:1001E800F628F72805290310321F03140318FD28E1
:1001F80001298312031332170429831203133213BC
:100208000B100B1C082909291529861C0C290D29F6
:10021800152910140914321F122913291429B21789
:100228000B100B108C1E19291A292C291A08F200F8
:100238007208F8000310311C031403182429282914
:100248008312031331142B29831203133110B114B1
:1002580075088A0074088400730E8300FE0E7E0EF3
:1002680009000F3083160317880089010F308316A1
:1002780003138500073086008030870088018901D4
:100288008312031385018601870188018901AB0167
:100298007030831603138F040F1430308312031346
:1002A80090040B308F00D1308E0010100B118B167C
:1002B8000C10831603130C140B108B110B178C16D0
:1002C8008B17161496141615831203131F083F393B
:1002D80080389F00C3309F059F101F148316031397
:1002E8009F139F121F120C30990018119816831231
:1002F800031318168316031318128312031398177F
:10030800831603130F148112811101118114011432
:100318000B118330831203138100B21232130800C9
:1003280083120313A300A401CD29230824070A126A
:100338008A112C230A128A1183120313A10021089F
:10034800B000E329230824070A128A112C230A1271
:100358008A1183120313A1002108AF00E32923089F
:1003680024070A128A112C230A128A1183120313F2
:10037800A1002108AE00E329230824070A128A11E4
:100388002C230A128A1183120313A1002108AD003D
:10039800E3292408A100A2012208003A0319D5295B
:1003A800E3292108003A03199929013A0319A629D2
:1003B800033A0319B329013A0319C029E329013083
:1003C800A1002108A40704302402031CEC29ED290C
:1003D800CD2908008312031332081F39123A031D6E
:1003E800F629F7291A2AE030B2051A2A30098100BD
:1003F80008103D2A2F09810088103D2A2E09810006
:1004080008113D2A2D09810088113D2A30088100F4
:1004180008143D2A2F08810088143D2A2E088100DF
:1004280008153D2A2D08810088153D2A32081F39F4
:10043800F000F1017108003A0319232A3D2A7008D7
:10044800003A03190A2A013A0319FA29023A031948
:100458000E2A073A0319FE29023A0319122A013A09
:100468000319022A0E3A0319162A033A0319062A0F
:100478003D2A080083120313A400A501572A300857
:10048800A2002208AC006D2A2F08A2002208AC00A6
:100498006D2A2E08A2002208AC006D2A2D08A200A1
:1004A8002208AC006D2A2508A200A3012308003AFF
:1004B80003195F2A6D2A2208003A0319432A013AD0
:1004C8000319482A033A03194D2A013A0319522AF3
:1004D8006D2A24082507A2002208A0002C080A1269
:1004E8008A110F230A128A11013083120313A20002
:1004F8002208A50704302502031C832A842A572AC8
:1005080008000A128A1135210A128A11AC2A8613A8
:10051800101C8F2A902AAC2A0A128A11C5220A12A4
:100528008A11AC2A0A128A1122200A128A1183120D
:10053800031386173110B21FA22AA32AAC2A0A1263
:100548008A11EA220A128A1183120313B213AC2AFF
:1005580083120313320EA800A80C280C0139A90035
:10056800AA012A08003A0319BA2AAC2A2908003A2B
:1005780003198B2A013A0319962AAC2A0A128A11FE
:100588000E28DA2A1010AB018901E92A2B08A500E8
:1005980001300310A50DFF3E031DCD2A0310250DC4
:1005A8000A128A1194210A128A11E92A8312031362
:1005B8002B08A500A6012608003A0319E42ACA2A2E
:1005C80025080D3A0319C62ACA2A0800FF2A10105E
:1005D800AB0189010E2B2B08A60001300310A60DD4
:1005E800FF3E031DF22A0310260D0A128A113E222D
:1005F8000A128A110E2B831203132B08A600A701D7
:100608002708003A0319092BEF2A26080D3A03197F
:10061800EB2AEF2A080083120313A1002008831293
:1006280003178D00831203132108831203178C000C
:10063800831603170C158B1355308D00AA308D00C7
:100648008C148B178C18292B2A2B262B0C1108009D
:1006580083120313A0002008831203178D0083164A
:0E06680003178C130C14831203170C080800E0
:04400E00F420FF3F5C
:00000001FF
