:020000040000FA
:060000000A128A110C280F
:10000800FE00030EF1000A08F2000A128A11A7295D
:100018000A128A110F28F801F901FA018312031351
:10002800A001A101A201A301A401A501A601A701A4
:1000380083010A128A1120280A128A1187220A12B9
:100048008A117A1F2828292890280A128A1106213D
:100058000A128A118312031386172710FA1F3528EC
:100068003628FD286C2800300A128A113D230A120E
:100078008A118E2805300A128A113D230A128A1124
:100088008E280A300A128A113D230A128A118E28F4
:100098000F300A128A113D230A128A118E28143051
:1000A8000A128A113D230A128A118E2819300A125F
:1000B8008A113D230A128A118E281E300A128A11CB
:1000C8003D230A128A118E281010A00189018E285A
:1000D8002008AA00AB012B08003A031974288E28BF
:1000E8002A08003A03193728023A03193E28063A23
:1000F80003194528023A03194C280E3A03195328C4
:10010800023A03195A28063A03196128013A0319D1
:1001180068288E28FA13FD28831203138613A71C58
:1001280096289728A12830302406031D9C289D284E
:10013800A028101401308900A710101CA428A52895
:10014800FD28DB2800300A128A11E6220A128A11D9
:10015800FD2805300A128A11E6220A128A11FD28A2
:100168000A300A128A11E6220A128A11FD280F3073
:100178000A128A11E6220A128A11FD2814300A127C
:100188008A11E6220A128A11FD2819300A128A11E8
:10019800E6220A128A11FD281E300A128A11E62266
:1001A8000A128A11FD281010A0018901FD282008D3
:1001B800AA00AB012B08003A0319E328FD282A08F6
:1001C800003A0319A628023A0319AD28063A03197A
:1001D800B428023A0319BB280E3A0319C228023A76
:1001E8000319C928063A0319D028013A0319D72850
:1001F800FD280A128A1124220A128A1125280A12B5
:100208008A110C28831203139F180B290C29A6297D
:1002180083291E08F3007308F800A6291F08C339AC
:1002280008389F00BF307802031C1B291C2920298D
:10023800BE30F3007308F8000A3078020318252945
:100248002629A6290A30F3007308F800A6291E08F3
:10025800F3007308A600A6291F08C3390C389F00AD
:10026800BF302602031C39293A293E29BE30F30043
:100278007308A6000A302602031843294429A62930
:100288000A30F3007308A600A6291E08F3007308B5
:10029800A500A629C3309F05BF302502031C552998
:1002A80056295A29BE30F3007308A5000A302502E2
:1002B80003185F296029A6290A30F3007308A500EE
:1002C800A6291E08F3007308F900A6291F08C339D8
:1002D80004389F00BF307902031C732974297829D8
:1002E800BE30F3007308F9000A30790203187D293B
:1002F8007E29A6290A30F3007308F900A6297A088E
:100308001F39F300F4017408003A03198C29A6294F
:100318007308003A03190D29013A03191229023A00
:1003280003192B29073A03193029023A03194929D5
:10033800013A03194E290E3A03196529033A03199C
:100348006A29A62908000B1DAA29AB29BD297A0804
:100358001F39F000F00A7A087006E0397006FA00D2
:10036800FA160B117A1FB929BA29BD29831203136A
:100378009F140B1CC029C129D12983120313061C01
:10038800C629C729D12903107A1F03140318CD29B8
:10039800CF297A17D0297A130B100B1CD429D52909
:1003A800E02983120313861CDA29DB29E0291014BB
:1003B80001308900FA170B100B1CE329E429F629F0
:1003C80083120313061DE929EA29F6290130F000F2
:1003D8007008890704300902031CF329F429F52958
:1003E80089010B100B10831203138C1EFC29FD29A5
:1003F8000F2A1A08F0007008A4000310271C031421
:100408000318072A0B2A8312031327140E2A8312B0
:1004180003132710A7140C1C122A132A1D2AFA17D3
:100428000130F0007008A0070C100B308F00D1309D
:100438008E0072088A00710E8300FE0E7E0E09007F
:10044800FA1E272A282A862A7A081F390F3A031DF6
:100458002E2A2F2A312AE030FA05FA12632A79095E
:100468008312031381000810862A78098312031364
:1004780081008810862A8312031326098100081137
:10048800862A83120313250981008811862A790890
:100498008312031381000814862A78088312031331
:1004A80081008814862A8312031326088100081500
:1004B800862A83120313250881008815862A7A085C
:1004C8001F39F300F4017408003A03196C2A862ACC
:1004D8007308003A03194B2A013A0319332A023ADE
:1004E8000319512A073A0319392A023A0319572AD4
:1004F800013A03193F2A0E3A03195D2A033A0319F0
:10050800452A862A08000F308316031788008901B8
:100518000F3083160313850007308600803087006C
:1005280088018901831203138501860187018801E7
:100538008901A0017030831603138F040F14303023
:100548008312031390040B308F00D1308E001010EB
:100558000B118B160C10831603130C140B108B1134
:100568000B178C168B171614961416158312031373
:100578001F083F3980389F00C3309F059F101F1404
:10058800831603139F139F121F120C309900181122
:10059800981683120313181683160313181283125E
:1005A80003139817831603130F1481128111011175
:1005B800811401140B118330831203138100FA1282
:1005C8007A130800F600F70176087707F400740834
:1005D80083120313A2001C2B22080A128A11A523D6
:1005E8000A128A11F4007408F900322B22080A1240
:1005F8008A11A5230A128A11F4007408F800322B14
:1006080022080A128A11A5230A128A11F400740812
:1006180083120313A600322B22080A128A11A5237B
:100628000A128A11F400740883120313A500322BEE
:100638007708F400F5017508003A0319242B322BCA
:100648007408003A0319F02A013A0319FA2A033AFE
:100658000319042B013A0319102B322B0130F40033
:100668007408F70704307702031C3B2B3C2BE82A5D
:10067800080083120313A800A90128082907F50018
:100688007508A2005B2B7908F5007508A100712B8D
:100698007808F5007508A100712B2608F500750883
:1006A800A100712B2508F5007508A100712B2908F8
:1006B800F500F6017608003A0319632B712B7508CB
:1006C800003A0319472B013A03194C2B033A031933
:1006D800512B013A0319562B712B2208F500750886
:1006E800F30021080A128A1188230A128A1101309C
:1006F800F500750883120313A90704302902031CA7
:10070800862B872B412B0800F400730883120317EC
:100718008D0074088C00831603170C158B138B1B24
:10072800962B972B932B5530831603178D00AA30E1
:100738008D008C148C18A12BA22B9E2B8B170C11BF
:100748000800F3007308831203178D00831603173C
:0C0758008C130C14831203170C0808000B
:04400E00F420FF3F5C
:00000001FF
