:020000040000FA
:060000000A128A110E280D
:10000800FE00030EF3000408F4000A08F5000A12C3
:100018008A11F1290A128A111128F601F701F8014B
:1000280083120313AB01AC01AD01AE01AF01B00106
:10003800B101B20183010A128A11B32B831203138F
:100048009F1827282828C2289F281E08A0002008B3
:10005800AF00C2281F08C33908389F00A0302F02FC
:10006800031C372838283C28A030A0002008AF00FF
:100078000B302F02031841284228C2280A30A0005A
:100088002008AF00C2281E08A0002008AE00C22821
:100098001F08C3390C389F00A0302E02031C5528B6
:1000A80056285A28A030A0002008AE000B302E0297
:1000B80003185F286028C2280A30A0002008AE0074
:1000C800C2281E08A0002008AD00C228C3309F0522
:1000D800A0302D02031C712872287628A030A000B9
:1000E8002008AD000B302D0203187B287C28C2287D
:1000F8000A30A0002008AD00C2281E08A000200871
:10010800B000C2281F08C33904389F00A03030024D
:10011800031C8F2890289428A030A0002008B00045
:100128000B303002031899289A28C2280A30A000F8
:100138002008B000C22832081F39A000A1012108F8
:10014800003A0319A828C2282008003A03192928C8
:10015800013A03192E28023A03194728073A0319C6
:100168004C28023A03196528013A03196A280E3AFD
:1001780003198128033A03198628C228080023296D
:1001880000300A128A11C2220A128A11592904302F
:100198000A128A11C2220A128A11592908300A122F
:1001A8008A11C2220A128A1159290C300A128A119C
:1001B800C2220A128A11592910300A128A11C2223F
:1001C8000A128A11592914300A128A11C2220A12F3
:1001D8008A11592918300A128A11C2220A128A1160
:1001E80059291C300A128A11C2220A128A11592965
:1001F80020300A128A11C2220A128A11592924307F
:100208000A128A11C2220A128A11592928300A129E
:100218008A11C2220A128A1159292C300A128A110B
:10022800C2220A128A11592930300A128A11C222AE
:100238000A128A1159291010AB0189015929831210
:1002480003132B08A500A6012608003A03192D2937
:1002580059292508003A0319C428013A0319CB285B
:10026800033A0319D228013A0319D928073A03197E
:10027800E028013A0319E728033A0319EE28013A5E
:100288000319F5280F3A0319FC28013A0319032921
:10029800033A03190A29013A03191129073A0319DC
:1002A8001829023A03191F2959290800BA290030C8
:1002B8000A128A116C230A128A11F02904300A12D0
:1002C8008A116C230A128A11F02908300A128A113D
:1002D8006C230A128A11F0290C300A128A116C2335
:1002E8000A128A11F02910300A128A116C230A1294
:1002F8008A11F02914300A128A116C230A128A1101
:10030800F02918300A128A116C230A128A11F0296E
:100318001C300A128A116C230A128A11F029203023
:100328000A128A116C230A128A11F02924300A123F
:100338008A116C230A128A11F02928300A128A11AC
:100348006C230A128A11F0292C300A128A116C23A4
:100358000A128A11F02930300A128A116C230A1203
:100368008A11F0291010AB018901F02983120313B7
:100378002B08A600A7012708003A0319C429F02969
:100388002608003A03195B29013A03196229033A3E
:1003980003196929013A03197029073A03197729BA
:1003A800013A03197E29033A03198529013A0319E9
:1003B8008C290F3A03199329013A03199A29033A08
:1003C8000319A129013A0319A829073A0319AF29E2
:1003D800023A0319B629F02908000B1DF429F5295A
:1003E8000D2A8312031332081F39F200F20A320869
:1003F8007206E0397206B2000B110A128A111C2328
:100408000A128A1183120313321F0B2A0C2A0D2A8F
:100418009F14831203130C1C122A132A1D2AB217C5
:100428000130F2007208AB070C100B308F00D1308E
:100438008E000B1C202A212A332A061C242A252A4E
:10044800332A0310321F031403182B2A2F2A83126E
:1004580003133217322A8312031332130B100B1CA7
:10046800362A372A432A861C3A2A3B2A432A10145A
:100478000914321F402A412A422AB2170B100B10C6
:100488008C1E472A482A5A2A1A08F2007208F800CD
:100498000310311C03140318522A562A831203131B
:1004A8003114592A831203133110B11475088A00C4
:1004B80074088400730E8300FE0E7E0E09000F3050
:1004C80083160317880089010F30831603138500EC
:1004D8000730860080308700880189018312031362
:1004E80085018601870188018901AB017030831677
:1004F80003138F040F1430308312031390040B304E
:100508008F00D1308E0010100B118B160C10831633
:1005180003130C140B108B110B178C168B17161456
:1005280096141615831203131F083F3980389F004D
:10053800C3309F059F101F14831603139F139F1228
:100548001F120C30990018119816831203131816ED
:1005580083160313181283120313981783160313B1
:100568000F14811281110111811401140B118330B0
:10057800831203138100B21232130800831203138B
:10058800A300A401FB2A230824070A128A111024B5
:100598000A128A1183120313A1002108B000112B3B
:1005A800230824070A128A1110240A128A118312B6
:1005B8000313A1002108AF00112B230824070A12F6
:1005C8008A1110240A128A1183120313A100210828
:1005D800AE00112B230824070A128A1110240A12CC
:1005E8008A1183120313A1002108AD00112B2408DE
:1005F800A100A2012208003A0319032B112B21089C
:10060800003A0319C72A013A0319D42A033A0319ED
:10061800E12A013A0319EE2A112B0130A100210821
:10062800A40704302402031C1A2B1B2BFB2A0800E6
:100638008312031332081F39123A031D242B252B6A
:10064800482BE030B205482B3009810008106B2B8D
:100658002F09810088106B2B2E09810008116B2B44
:100668002D09810088116B2B3008810008146B2B31
:100678002F08810088146B2B2E08810008156B2B1E
:100688002D08810088156B2B32081F39F000F10105
:100698007108003A0319512B6B2B7008003A0319A3
:1006A800382B013A0319282B023A03193C2B073A35
:1006B80003192C2B023A0319402B013A0319302B4A
:1006C8000E3A0319442B033A0319342B6B2B0800F9
:1006D80083120313A400A501852B3008A200220869
:1006E800AC009B2B2F08A2002208AC009B2B2E08E5
:1006F800A2002208AC009B2B2D08A2002208AC0007
:100708009B2B2508A200A3012308003A03198D2B6F
:100718009B2B2208003A0319712B013A0319762BF7
:10072800033A03197B2B013A0319802B9B2B2408CE
:100738002507A2002208A0002C080A128A11F32318
:100748000A128A11013083120313A2002208A50796
:1007580004302502031CB12BB22B852B08000A128A
:100768008A1163220A128A11DA2B8613101CBD2BF8
:10077800BE2BDA2B0A128A11C3200A128A11DA2B2D
:100788000A128A1122200A128A1183120313861769
:100798003110B21FD02BD12BDA2B0A128A115A2111
:1007A8000A128A1183120313B213DA2B831203136A
:1007B800320EA800A80C280C0139A900AA012A08A1
:1007C800003A0319E82BDA2B2908003A0319B92B48
:1007D800013A0319C42BDA2B0A128A110E28831244
:1007E8000313A1002008831203178D00831203133B
:1007F8002108831203178C00831603170C158B131B
:1008080055308D00AA308D008C148B178C180D2C48
:100818000E2C0A2C0C11080083120313A0002008C8
:10082800831203178D00831603178C130C1483127D
:0608380003170C08080084
:04400E00F420FF3F5C
:00000001FF
