:020000040000FA
:060000000A128A110E280D
:10000800FE00030EF3000408F4000A08F5000A12C3
:100018008A113C2A0A128A111128F601F701831263
:100028000313AB01AC01AD01AE01AF01B001B101E9
:10003800B20183010A128A112E29831203139F1811
:10004800262827282D290A29831603178C182D28D6
:100058002E282D29831203131F0CA000200C0F3902
:10006800013A031D382839282D291E08A000200828
:10007800AF002D29831603178C18432844284A28D3
:10008800831203131F08C33908389F00A030831256
:1000980003132F02031C512852285628A030A00011
:1000A8002008AF000B302F0203185B285C282D298D
:1000B8000A30A0002008AF002D29831603178C18DA
:1000C800662867282D29831203131F0CA000200C13
:1000D8000F39023A031D712872282D291E08A00025
:1000E8002008AE002D29831603178C187C287D283C
:1000F8008328831203131F08C3390C389F00A030CC
:10010800831203132E02031C8A288B288F28A03001
:10011800A0002008AE000B302E0203189428952862
:100128002D290A30A0002008AE002D2983160317B8
:100138008C189F28A0282D29831203131F0CA000B8
:10014800200C0F39033A031DAA28AB282D291E08B5
:10015800A0002008AD002D29831603178C18B52898
:10016800B628BA28C330831203139F05A030831220
:1001780003132D02031CC128C228C628A030A000E2
:100188002008AD000B302D020318CB28CC282D29D0
:100198000A30A0002008AD002D29831603178C18FB
:1001A800D628D7282D29831203131F0CA000200C52
:1001B8000F39003A031DE128E2282D291E08A00066
:1001C8002008B0002D29831603178C18EC28ED2879
:1001D800F328831203131F08C33904389F00A03083
:1001E800831203133002031CFA28FB28FF28A030CF
:1001F800A0002008B0000B3030020318042905299C
:100208002D290A30A0002008B0002D2932081F39F6
:10021800A000A1012108003A031913292D2920085B
:10022800003A03192828013A03193E28023A03190B
:100238006128073A03197728023A03199A28013ADC
:100248000319B0280E3A0319D128033A0319E728ED
:100258002D2908000A128A11C6210A128A11AD290D
:100268008613311C3829392990295A291014091460
:1002780083120313AC017329FF309B0062300A120A
:100288008A112C240A128A113C290F309B006330F2
:100298000A128A112C240A128A113C2931155F305E
:1002A800A8002808AC007329311173292C08A8006C
:1002B800A9012908003A0319622973292808013A73
:1002C80003193A29033A03194029013A031949291C
:1002D800073A031952290C3A03195829732931107E
:1002E800311D7729782990290B302C0203187D2994
:1002F8007E2982290A30A8002808AC00A0302C02E8
:10030800031C872988298C29A030A8002808AC005C
:100318002C08A8002808B000101C93299429AD299E
:100328000A128A11AC230A128A11AD298617B21F44
:100338009E299F29A7290A128A11D9230A128A11EC
:1003480083120313B2130A128A1121200A128A1186
:10035800AD2983120313320EA800A80C280C01390A
:10036800A900AA012A08003A0319BB29AD292908BE
:10037800003A03193429013A03199A29AD290A12B6
:100388008A110E280F3083160317880089010F3051
:1003980083160313850007308600823087008801A2
:1003A8008901831203138501860187018801890168
:1003B800AB0131117030831603138F040F148312AD
:1003C80003131008CF39203890003C308F00AF302D
:1003D8008E0010100B118B160C10831603130C14BF
:1003E8000B108B110B178C168B17161496141615E9
:1003F800831203131F083F3980389F00C3309F05BD
:100408009F101F14831603139F139F121F12F93096
:1004180092000F30831203139D040F309B008C1041
:100428000330920412158C1C1A2A1B2A172A8030B2
:100438008316031387000C3099001811981683123D
:10044800031318168316031318128312031398172D
:10045800831603130F1481128111011181140114E1
:100468000B118330831203138100B2123213080078
:100478000B1D3F2A402A582A8312031332081F39BA
:10048800F200F20A32087206E0397206B2000B1165
:100498000A128A115C230A128A1183120313321F6B
:1004A800562A572A582A9F14831203130C1C5D2AB4
:1004B8005E2A682AB2170130F2007208AB070C10E6
:1004C8003C308F00AF308E000B1C6B2A6C2A822ABE
:1004D800061C6F2A702A822A1018732A742A812A05
:1004E8000310321F031403187A2A7E2A8312031377
:1004F8003217812A8312031332130B100B1C852A1F
:10050800862A962A861C892A8A2A962A321F8D2AA2
:100518008E2A902A10140914321F932A942A952A95
:10052800B2170B100B108C1E9A2A9B2AA12A1A08A4
:10053800F2007208AC0031148C1275088A00740835
:100548008400730E8300FE0E7E0E090083120313CF
:10055800A300A401E32A230824070A128A111D24F0
:100568000A128A1183120313A1002108B000F92A84
:10057800230824070A128A111D240A128A118312D9
:100588000313A1002108AF00F92A230824070A123F
:100598008A111D240A128A1183120313A10021084B
:1005A800AE00F92A230824070A128A111D240A1208
:1005B8008A1183120313A1002108AD00F92A240827
:1005C800A100A2012208003A0319EB2AF92A2108FE
:1005D800003A0319AF2A013A0319BC2A033A03194E
:1005E800C92A013A0319D62AF92A0130A10021089B
:1005F800A40704302402031C022B032BE32A08005F
:1006080083120313A400A501392B24082507A2008F
:100618002208A00030080A128A1100240A128A113E
:100628004F2B24082507A2002208A0002F080A1231
:100638008A1100240A128A114F2B24082507A200C8
:100648002208A0002E080A128A1100240A128A1110
:100658004F2B24082507A2002208A0002D080A1203
:100668008A1100240A128A114F2B2508A200A3011F
:100678002308003A0319412B4F2B2208003A03198B
:10068800092B013A0319152B033A0319212B013AB7
:1006980003192D2B4F2B013083120313A2002208BC
:1006A800A50704302502031C5A2B5B2B392B0800A5
:1006B8008312031332081F390F3A031D642B652B6D
:1006C800882BE030B205882B300881000814AB2B4A
:1006D800300981000810AB2B2F0881008814AB2B40
:1006E8002F0981008810AB2B2E0881000815AB2B31
:1006F8002E0981000811AB2B2D0881008815AB2B22
:100708002D0981008811AB2B32081F39F000F10147
:100718007108003A0319912BAB2B7008003A0319A2
:10072800682B013A03196C2B023A0319702B073A0C
:100738000319742B023A0319782B013A03197C2BFD
:100748000E3A0319802B033A0319842BAB2B0800AC
:10075800C92B10108F018E01AB01890161300A127B
:100768008A112C240A128A11D82B2B08A5000130D3
:100778000310A50DFF3E031DBC2B0310250D0A1207
:100788008A11AA220A128A11D82B831203132B0862
:10079800A500A6012608003A0319D32BB92B250872
:1007A8001F3A0319AD2BB92B0800F02B10108F013D
:1007B8008E01AB018901FF2B2B08A6000130031025
:1007C800A60DFF3E031DE32B0310260D0A128A1106
:1007D80004230A128A11FF2B831203132B08A60085
:1007E800A7012708003A0319FA2BE02B26081F3A1D
:1007F8000319DA2BE02B080083120313A100200849
:10080800831203178D008312031321088312031721
:100818008C00831603170C158B1355308D00AA30E6
:100828008D008C148B178C181A2C1B2C172C0C1160
:10083800080083120313A0002008831203178D00F9
:10084800831603178C130C14831203170C08080063
:1008580083120313A0002008990083160313981C21
:08086800362C372C312C08005E
:04400E00F420FF3F5C
:00000001FF
