:020000040000FA
:060000000A128A110C280F
:10000800FE00030EF7000A08F8000A128A116C298C
:100018000A128A110F28F001F101F201F301F4012B
:10002800F50183010A128A11A829831203139F1864
:100038001E281F28B92896281E08F9007908F300F9
:10004800B9281F08C33908389F00BF307302031C42
:100058002E282F283328BE30F9007908F3000A30FB
:100068007302031838283928B9280A30F9007908A2
:10007800F300B9281E08F9007908F200B9281F080A
:10008800C3390C389F00BF307202031C4C284D281E
:100098005128BE30F9007908F2000A3072020318BC
:1000A80056285728B9280A30F9007908F200B928E3
:1000B8001E08F9007908F100B928C3309F05BF3040
:1000C8007102031C682869286D28BE30F900790878
:1000D800F1000A307102031872287328B9280A300F
:1000E800F9007908F100B9281E08F9007908F40028
:1000F800B9281F08C33904389F00BF307402031C95
:10010800862887288B28BE30F9007908F4000A3041
:100118007402031890289128B9280A30F900790840
:10012800F400B92875081F39F900FA017A08003A6D
:1001380003199F28B9287908003A03192028013A99
:1001480003192528023A03193E28073A03194328B8
:10015800023A03195C28013A031961280E3A031977
:100168007828033A03197D28B9280800F51EBD2808
:10017800BE281C2975081F390F3A031DC428C52835
:10018800C728E030F505F512F9287409831203131E
:10019800810008101C297309831203138100881039
:1001A8001C29720983120313810008111C29710983
:1001B80083120313810088111C2974088312031306
:1001C800810008141C297308831203138100881402
:1001D8001C29720883120313810008151C29710851
:1001E80083120313810088151C2975081F39F9002B
:1001F800FA017A08003A031902291C297908003AF9
:100208000319E128013A0319C928023A0319E72812
:10021800073A0319CF28023A0319ED28013A0319BE
:10022800D5280E3A0319F328033A0319DB281C29A9
:1002380008000F3083160317880089010F308316D2
:10024800031385000130860080308700880189010A
:1002580083120313850186018701880189017030A3
:10026800831603138F040F140B118B160B108B11AD
:100278000B178C168B171614831203131F083F399C
:1002880080389F00C3309F059F101F1483160313E7
:100298009F139F121F120C30990018119816831281
:1002A80003131816831603131812831203139817CF
:1002B800831603130F148112811101118114011483
:1002C8000B118330831203138100F5127513080094
:1002D8000B1D6F297029822975081F39F600F60A47
:1002E80075087606E0397606F500F5160B11751FC8
:1002F8007E297F298229831203139F140B1C8529C9
:10030800862996298312031306188B298C29962986
:100318000310751F0314031892299429751795293A
:1003280075130B100B10831203138C1E9C299D2927
:10033800A1291A08F6007608F00078088A00770ED6
:100348008300FE0E7E0E09000A128A111D210A1270
:100358008A11751FB029B129BA290A128A111920E0
:100368000A128A11831203138617C12983120313F1
:1003780086137008FB007B08F4000A128A11BA2061
:0C0388000A128A11AD290A128A110C28F1
:04400E00F420FF3F5C
:00000001FF
