:020000040000FA
:060000000A128A110C280F
:10000800FE00030EF8000A08F9000A128A11EC290A
:100018000A128A110F28F001F101F201F301F4012B
:10002800F501F60183120313A40183010A128A1150
:10003800BE28831203139F1822282328BD289A2834
:100048001E08A0002008F300BD281F08C33908387F
:100058009F00BF307302031C322833283728BE3074
:10006800A0002008F3000A30730203183C283D283A
:10007800BD280A30A0002008F300BD281E08A000F3
:100088002008F200BD281F08C3390C389F00BF3074
:100098007202031C502851285528BE30A0002008A1
:1000A800F2000A30720203185A285B28BD280A3069
:1000B800A0002008F200BD281E08A0002008F100BA
:1000C800BD28C3309F05BF307102031C6C286D2802
:1000D8007128BE30A0002008F1000A307102031810
:1000E80076287728BD280A30A0002008F100BD280E
:1000F8001E08A0002008F400BD281F08C3390438D2
:100108009F00BF307402031C8A288B288F28BE30BA
:10011800A0002008F4000A307402031894289528D7
:10012800BD280A30A0002008F400BD2876081F3931
:10013800A000A1012108003A0319A328BD2820081E
:10014800003A03192428013A03192928023A031905
:100158004228073A03194728023A03196028013A46
:10016800031965280E3A03197C28033A03198128D4
:10017800BD2808000A128A119D210A128A11761FC9
:10018800C628C728D1280A128A111D200A128A11E6
:1001980083120313861775103F29831203138613DE
:1001A8007518D728D82818297008A2002208A40092
:1001B800F51CDF28E028182970300A128A11342229
:1001C8000A128A11F5101829751CEB28EC28F0285A
:1001D8007008A2002208F400403086003029751CFF
:1001E800F628F728FB287008A2002208F300203020
:1001F80086003029751C0129022906297008A200E9
:100208002208F200103086003029751C0C290D29AF
:1002180011297008A2002208F10008308600302950
:100228007510F51086013029831203132408A200E3
:10023800A3012308003A0319222914292208313A74
:100248000319E828033A0319F328013A0319FE2889
:10025800073A031909291429751C332934293F2918
:10026800F51C372938293F2973300A128A1134229C
:100278000A128A11F5100A128A1148210A128A11E3
:10028800C3280A128A110C28F61E4B294C299C29CE
:1002980076081F390F3A031D522953295529E03092
:1002A800F605F61277297409810008109C2973094C
:1002B800810088109C297209810008119C29710904
:1002C800810088119C297408810008149C297308EE
:1002D800810088149C297208810008159C297108DE
:1002E800810088159C2976081F3983120313A00002
:1002F800A1012108003A031982299C292008003A03
:1003080003196729013A03195729023A03196B2976
:10031800073A03195B29023A03196F29013A0319AD
:100328005F290E3A03197329033A031963299C2993
:1003380008000F3083160317880089010F308316D1
:100348000313850001308600803087008801890109
:1003580083120313850186018701880189017030A2
:10036800831603138F040F140B118B160B108B11AC
:100378000B178C168B171614831203131F083F399B
:1003880080389F00C3309F059F101F1483160313E6
:100398009F139F121F120C30990018119816831280
:1003A80003131816831603131812831203139817CE
:1003B800831603130F148112811101118114011482
:1003C8000B118330831203138100F6127613080091
:1003D8000B1DEF29F029022A76081F39F700F70AC2
:1003E80076087706E0397706F600F6160B11761FC1
:1003F800FE29FF29022A831203139F140B1C052AC6
:10040800062A162A8312031306180B2A0C2A162A00
:100418000310761F03140318122A142A7617152AB4
:1004280076130B100B10831203138C1E1C2A1D2A23
:100438002D2A0310751C03140318232A252A751462
:10044800262A7510F514831203131A08F700770883
:10045800F00079088A00780E8300FE0E7E0E0900EF
:10046800FA007A0883120313990083160313981C61
:080478003E2A3F2A392A080040
:04400E00F420FF3F5C
:00000001FF
