:020000040000FA
:060000000A128A110E280D
:10000800FE00030EF3000408F4000A08F5000A12C3
:100018008A11F1290A128A111128F601F7018312AF
:100028000313AB01AC01AD01AE01AF01B001B101E9
:10003800B201B30183010A128A116D2B83120313D3
:100048009F1827282828C2289F281E08A0002008B3
:10005800B000C2281F08C33908389F00BF303002DB
:10006800031C372838283C28A030A0002008B000FE
:100078000A303002031841284228C2280A30A0005A
:100088002008B000C2281E08A0002008AF00C2281F
:100098001F08C3390C389F00BF302F02031C552896
:1000A80056285A28A030A0002008AF000A302F0296
:1000B80003185F286028C2280A30A0002008AF0073
:1000C800C2281E08A0002008AE00C228C3309F0521
:1000D800BF302E02031C712872287628A030A00099
:1000E8002008AE000A302E0203187B287C28C2287C
:1000F8000A30A0002008AE00C2281E08A000200870
:10010800B100C2281F08C33904389F00BF3031022C
:10011800031C8F2890289428A030A0002008B10044
:100128000A303102031899289A28C2280A30A000F8
:100138002008B100C22833081F39A000A1012108F6
:10014800003A0319A828C2282008003A03192928C8
:10015800013A03192E28023A03194728073A0319C6
:100168004C28023A03196528013A03196A280E3AFD
:1001780003198128033A03198628C228080023296D
:1001880000300A128A11C3220A128A11592904302E
:100198000A128A11C3220A128A11592908300A122E
:1001A8008A11C3220A128A1159290C300A128A119B
:1001B800C3220A128A11592910300A128A11C3223D
:1001C8000A128A11592914300A128A11C3220A12F2
:1001D8008A11592918300A128A11C3220A128A115F
:1001E80059291C300A128A11C3220A128A11592964
:1001F80020300A128A11C3220A128A11592924307E
:100208000A128A11C3220A128A11592928300A129D
:100218008A11C3220A128A1159292C300A128A110A
:10022800C3220A128A11592930300A128A11C322AC
:100238000A128A1159291010AB0189015929831210
:1002480003132B08A500A6012608003A03192D2937
:1002580059292508003A0319C428013A0319CB285B
:10026800033A0319D228013A0319D928073A03197E
:10027800E028013A0319E728033A0319EE28013A5E
:100288000319F5280F3A0319FC28013A0319032921
:10029800033A03190A29013A03191129073A0319DC
:1002A8001829023A03191F2959290800BA290030C8
:1002B8000A128A11BB230A128A11F02904300A1281
:1002C8008A11BB230A128A11F02908300A128A11EE
:1002D800BB230A128A11F0290C300A128A11BB2397
:1002E8000A128A11F02910300A128A11BB230A1245
:1002F8008A11F02914300A128A11BB230A128A11B2
:10030800F02918300A128A11BB230A128A11F0291F
:100318001C300A128A11BB230A128A11F0292030D4
:100328000A128A11BB230A128A11F02924300A12F0
:100338008A11BB230A128A11F02928300A128A115D
:10034800BB230A128A11F0292C300A128A11BB2306
:100358000A128A11F02930300A128A11BB230A12B4
:100368008A11F0291010AB018901F02983120313B7
:100378002B08A600A7012708003A0319C429F02969
:100388002608003A03195B29013A03196229033A3E
:1003980003196929013A03197029073A03197729BA
:1003A800013A03197E29033A03198529013A0319E9
:1003B8008C290F3A03199329013A03199A29033A08
:1003C8000319A129013A0319A829073A0319AF29E2
:1003D800023A0319B629F02908000B1DF429F5295A
:1003E8000D2A8312031333081F39F200F20A330867
:1003F8007206E0397206B3000B110A128A111D2326
:100408000A128A1183120313331F0B2A0C2A0D2A8E
:100418009F14831203130C1C122A132A1D2AB317C4
:100428000130F2007208AB070C100B308F00D1308E
:100438008E000B1C202A212A332A061C242A252A4E
:10044800332A0310331F031403182B2A2F2A83126D
:1004580003133317322A8312031333130B100B1CA5
:10046800362A372A442A861C3A2A3B2A442A101458
:1004780001308900331F412A422A432AB3170B103F
:100488000B108C1E482A492A5B2A1A08F2007208A7
:10049800AD000310321C03140318532A572A831281
:1004A800031332145A2A831203133210B214750834
:1004B8008A0074088400730E8300FE0E7E0E090005
:1004C8000F3083160317880089010F308316031332
:1004D80085000730860080308700880189018312F3
:1004E800031385018601870188018901AB017030FA
:1004F800831603138F040F143030831203139004F0
:100508000B308F00D1308E0010100B118B160C1091
:10051800831603130C140B108B110B178C168B17E7
:10052800161496141615831203131F083F398038C2
:100538009F00C3309F059F101F14831603139F133A
:100548009F121F120C30990018119816831203136A
:100558001816831603131812831203139817831699
:1005680003130F14811281110111811401140B114D
:100578008330831203138100B312331308008312EC
:100588000313A300A401FC2A230824070A128A11D2
:100598001F240A128A1183120313A1002108B10033
:1005A800122B230824070A128A111F240A128A11FF
:1005B80083120313A1002108B000122B230824077B
:1005C8000A128A111F240A128A1183120313A10026
:1005D8002108AF00122B230824070A128A111F24AE
:1005E8000A128A1183120313A1002108AE00122BEC
:1005F8002408A100A2012208003A0319042B122B97
:100608002108003A0319C82A013A0319D52A033ADE
:100618000319E22A013A0319EF2A122B0130A1002B
:100628002108A40704302402031C1B2B1C2BFC2AC2
:1006380008008312031333081F390F3A031D252BB3
:10064800262B492BE030B305492B310981000810CE
:100658006C2B3009810088106C2B2F098100081140
:100668006C2B2E09810088116C2B3108810008142D
:100678006C2B3008810088146C2B2F08810008151A
:100688006C2B2E08810088156C2B33081F39F0005D
:10069800F1017108003A0319522B6C2B7008003ACB
:1006A8000319392B013A0319292B023A03193D2B57
:1006B800073A03192D2B023A0319412B013A031962
:1006C800312B0E3A0319452B033A0319352B6C2BA2
:1006D80008000A128A1164220A128A11A22B8613B0
:1006E800B21C772B782B822B30302D06031D7D2BE7
:1006F8007E2B812B101401308900B210101C852B21
:10070800862BA22B0A128A11C3200A128A11A22B45
:100718000A128A1122200A128A11831203138617D9
:100728003210B31F982B992BA22B0A128A115A2127
:100738000A128A1183120313B313A22B8312031311
:10074800330EA800A80C280C0139A900AA012A0810
:10075800003A0319B02BA22B2908003A0319732B6E
:10076800013A03198C2BA22B0A128A110E28831224
:100778000313A400A501D42B3108A2002208AC0061
:10078800EA2B3008A2002208AC00EA2B2F08A200AE
:100798002208AC00EA2B2E08A2002208AC00EA2BA3
:1007A8002508A200A3012308003A0319DC2BEA2B31
:1007B8002208003A0319C02B013A0319C52B033A42
:1007C8000319CA2B013A0319CF2BEA2B2408250752
:1007D800A2002208A0002C080A128A1102240A1278
:1007E8008A11013083120313A2002208A5070430DE
:1007F8002502031C002C012CD42B080083120313A0
:10080800A1002008831203178D0083120313210807
:10081800831203178C00831603170C158B1355309E
:100828008D00AA308D008C148B178C181C2C1D2C55
:10083800192C0C11080083120313A000200883123E
:1008480003178D00831603178C130C1483120317D8
:040858000C08080080
:04400E00F420FF3F5C
:00000001FF
